{
  "abi": [
    {
      "anonymous": false,
      "inputs": [
        {
          "indexed": true,
          "internalType": "address",
          "name": "_address",
          "type": "address"
        }
      ],
      "name": "NewCancellation",
      "type": "event"
    },
    {
      "anonymous": false,
      "inputs": [
        {
          "indexed": true,
          "internalType": "contract ILssSecurityOracle",
          "name": "_securityOracle",
          "type": "address"
        }
      ],
      "name": "NewSecurityOracle",
      "type": "event"
    },
    {
      "anonymous": false,
      "inputs": [
        {
          "indexed": true,
          "internalType": "address",
          "name": "_address",
          "type": "address"
        },
        {
          "indexed": true,
          "internalType": "uint256",
          "name": "_blocks",
          "type": "uint256"
        }
      ],
      "name": "NewSubscription",
      "type": "event"
    },
    {
      "anonymous": false,
      "inputs": [
        {
          "indexed": true,
          "internalType": "uint256",
          "name": "_subFee",
          "type": "uint256"
        }
      ],
      "name": "NewSubscriptionFee",
      "type": "event"
    },
    {
      "anonymous": false,
      "inputs": [
        {
          "indexed": true,
          "internalType": "contract IERC20",
          "name": "_subToken",
          "type": "address"
        }
      ],
      "name": "NewSubscriptionToken",
      "type": "event"
    },
    {
      "anonymous": false,
      "inputs": [
        {
          "indexed": true,
          "internalType": "uint256",
          "name": "_withdrawPool",
          "type": "uint256"
        }
      ],
      "name": "NewWithdrawal",
      "type": "event"
    },
    {
      "anonymous": false,
      "inputs": [
        {
          "indexed": true,
          "internalType": "address",
          "name": "previousOwner",
          "type": "address"
        },
        {
          "indexed": true,
          "internalType": "address",
          "name": "newOwner",
          "type": "address"
        }
      ],
      "name": "OwnershipTransferred",
      "type": "event"
    },
    {
      "anonymous": false,
      "inputs": [
        {
          "indexed": false,
          "internalType": "address",
          "name": "account",
          "type": "address"
        }
      ],
      "name": "Paused",
      "type": "event"
    },
    {
      "anonymous": false,
      "inputs": [
        {
          "indexed": false,
          "internalType": "address",
          "name": "account",
          "type": "address"
        }
      ],
      "name": "Unpaused",
      "type": "event"
    },
    {
      "inputs": [
        {
          "internalType": "address",
          "name": "_address",
          "type": "address"
        }
      ],
      "name": "cancelSubscription",
      "outputs": [],
      "stateMutability": "nonpayable",
      "type": "function"
    },
    {
      "inputs": [
        {
          "internalType": "address",
          "name": "_address",
          "type": "address"
        }
      ],
      "name": "getIsSubscribed",
      "outputs": [
        {
          "internalType": "bool",
          "name": "",
          "type": "bool"
        }
      ],
      "stateMutability": "view",
      "type": "function"
    },
    {
      "inputs": [
        {
          "internalType": "uint256",
          "name": "_subsricption",
          "type": "uint256"
        },
        {
          "internalType": "contract IERC20",
          "name": "_subToken",
          "type": "address"
        }
      ],
      "name": "initialize",
      "outputs": [],
      "stateMutability": "nonpayable",
      "type": "function"
    },
    {
      "inputs": [],
      "name": "lssSecurityOracle",
      "outputs": [
        {
          "internalType": "contract ILssSecurityOracle",
          "name": "",
          "type": "address"
        }
      ],
      "stateMutability": "view",
      "type": "function"
    },
    {
      "inputs": [],
      "name": "owner",
      "outputs": [
        {
          "internalType": "address",
          "name": "",
          "type": "address"
        }
      ],
      "stateMutability": "view",
      "type": "function"
    },
    {
      "inputs": [],
      "name": "pause",
      "outputs": [],
      "stateMutability": "nonpayable",
      "type": "function"
    },
    {
      "inputs": [],
      "name": "paused",
      "outputs": [
        {
          "internalType": "bool",
          "name": "",
          "type": "bool"
        }
      ],
      "stateMutability": "view",
      "type": "function"
    },
    {
      "inputs": [],
      "name": "renounceOwnership",
      "outputs": [],
      "stateMutability": "nonpayable",
      "type": "function"
    },
    {
      "inputs": [
        {
          "internalType": "address[]",
          "name": "_addresses",
          "type": "address[]"
        },
        {
          "internalType": "uint8[]",
          "name": "_scores",
          "type": "uint8[]"
        }
      ],
      "name": "setRiskScore",
      "outputs": [],
      "stateMutability": "nonpayable",
      "type": "function"
    },
    {
      "inputs": [
        {
          "internalType": "contract ILssSecurityOracle",
          "name": "_oracle",
          "type": "address"
        }
      ],
      "name": "setSecurityOracle",
      "outputs": [],
      "stateMutability": "nonpayable",
      "type": "function"
    },
    {
      "inputs": [
        {
          "internalType": "uint256",
          "name": "_sub",
          "type": "uint256"
        }
      ],
      "name": "setSubscriptionFee",
      "outputs": [],
      "stateMutability": "nonpayable",
      "type": "function"
    },
    {
      "inputs": [
        {
          "internalType": "contract IERC20",
          "name": "_token",
          "type": "address"
        }
      ],
      "name": "setSubscriptionToken",
      "outputs": [],
      "stateMutability": "nonpayable",
      "type": "function"
    },
    {
      "inputs": [],
      "name": "subFee",
      "outputs": [
        {
          "internalType": "uint256",
          "name": "",
          "type": "uint256"
        }
      ],
      "stateMutability": "view",
      "type": "function"
    },
    {
      "inputs": [
        {
          "internalType": "address",
          "name": "",
          "type": "address"
        }
      ],
      "name": "subNo",
      "outputs": [
        {
          "internalType": "uint256",
          "name": "",
          "type": "uint256"
        }
      ],
      "stateMutability": "view",
      "type": "function"
    },
    {
      "inputs": [],
      "name": "subToken",
      "outputs": [
        {
          "internalType": "contract IERC20",
          "name": "",
          "type": "address"
        }
      ],
      "stateMutability": "view",
      "type": "function"
    },
    {
      "inputs": [
        {
          "internalType": "address",
          "name": "_address",
          "type": "address"
        },
        {
          "internalType": "uint256",
          "name": "_blocks",
          "type": "uint256"
        }
      ],
      "name": "subscribe",
      "outputs": [],
      "stateMutability": "nonpayable",
      "type": "function"
    },
    {
      "inputs": [],
      "name": "totalUniqueSubs",
      "outputs": [
        {
          "internalType": "uint256",
          "name": "",
          "type": "uint256"
        }
      ],
      "stateMutability": "view",
      "type": "function"
    },
    {
      "inputs": [
        {
          "internalType": "address",
          "name": "newOwner",
          "type": "address"
        }
      ],
      "name": "transferOwnership",
      "outputs": [],
      "stateMutability": "nonpayable",
      "type": "function"
    },
    {
      "inputs": [],
      "name": "unpause",
      "outputs": [],
      "stateMutability": "nonpayable",
      "type": "function"
    },
    {
      "inputs": [],
      "name": "withdrawTokens",
      "outputs": [
        {
          "internalType": "uint256",
          "name": "",
          "type": "uint256"
        }
      ],
      "stateMutability": "nonpayable",
      "type": "function"
    }
  ],
  "bytecode": {
    "object": "0x608060405234801561001057600080fd5b506114cd806100206000396000f3fe608060405234801561001057600080fd5b506004361061012c5760003560e01c80637fb9268e116100ad57806393d81d581161007157806393d81d5814610274578063bf94932b14610287578063da35a26f1461029a578063e9ffa9f4146102ad578063f2fde38b146102c057600080fd5b80637fb9268e146102205780638456cb59146102405780638d8f2adb146102485780638da5cb5b146102505780638de692841461026157600080fd5b8063587544c3116100f4578063587544c3146101de5780635c975abb146101e75780636ac84956146101f2578063715018a6146102055780637dfc54981461020d57600080fd5b80631fec6493146101315780632ac893a01461014d5780632b704db0146101625780633f4ba83a1461018d578063453e01ad14610195575b600080fd5b61013a60995481565b6040519081526020015b60405180910390f35b61016061015b366004611068565b6102d3565b005b609754610175906001600160a01b031681565b6040516001600160a01b039091168152602001610144565b6101606103ae565b6101ce6101a3366004611068565b6001600160a01b03166000908152609b60209081526040808320548352609c90915290205443111590565b6040519015158152602001610144565b61013a609a5481565b60335460ff166101ce565b61016061020036600461108c565b6103e2565b610160610491565b61016061021b36600461118b565b6104c5565b61013a61022e366004611068565b609b6020526000908152604090205481565b6101606105a8565b61013a6105da565b6065546001600160a01b0316610175565b61016061026f36600461124d565b6106d7565b610160610282366004611068565b61088b565b610160610295366004611068565b6109eb565b6101606102a8366004611279565b610abd565b609854610175906001600160a01b031681565b6101606102ce366004611068565b610b97565b6065546001600160a01b031633146103065760405162461bcd60e51b81526004016102fd906112a9565b60405180910390fd5b6098546001600160a01b03828116911614156103645760405162461bcd60e51b815260206004820152601a60248201527f4c53533a2043616e6e6f74207365742073616d6520746f6b656e00000000000060448201526064016102fd565b609880546001600160a01b0319166001600160a01b0383169081179091556040517ff9ae0423c847ec8129e1d3a9ca8480341e82d7098f7dc4660f4fc0495a916d1a90600090a250565b6065546001600160a01b031633146103d85760405162461bcd60e51b81526004016102fd906112a9565b6103e0610c32565b565b6065546001600160a01b0316331461040c5760405162461bcd60e51b81526004016102fd906112a9565b80609954141561045e5760405162461bcd60e51b815260206004820152601b60248201527f4c53533a2043616e6e6f74207365742073616d6520616d6f756e74000000000060448201526064016102fd565b609981905560405181907f85d4a02d5fc7d0c65a3057977b8c9ec75d25c5aed9a7ee054abe838bd4145e1b90600090a250565b6065546001600160a01b031633146104bb5760405162461bcd60e51b81526004016102fd906112a9565b6103e06000610cc5565b6065546001600160a01b031633146104ef5760405162461bcd60e51b81526004016102fd906112a9565b80518251146105405760405162461bcd60e51b815260206004820152601860248201527f4c53533a2041727261797320646f206e6f74206d61746368000000000000000060448201526064016102fd565b60975460405163065182f760e51b81526001600160a01b039091169063ca305ee09061057290859085906004016112de565b600060405180830381600087803b15801561058c57600080fd5b505af11580156105a0573d6000803e3d6000fd5b505050505050565b6065546001600160a01b031633146105d25760405162461bcd60e51b81526004016102fd906112a9565b6103e0610d17565b6065546000906001600160a01b031633146106075760405162461bcd60e51b81526004016102fd906112a9565b6000805b609a54811161068f576000818152609c60205260409020805443111561064857600281015461063a908461137b565b600060028301559250610686565b6000816001015443836000015461065f9190611393565b61066991906113aa565b905080826002015461067b9190611393565b600283019190915592505b5060010161060b565b506098546106a7906001600160a01b03163383610d92565b60405181907f58eb5dbbf019b25979cf9b1f2b727523a9b05c3a44820f08bed539287844cefd90600090a2905090565b6001600160a01b03821661072d5760405162461bcd60e51b815260206004820152601c60248201527f4c53533a2043616e6e6f7420737562207a65726f20616464726573730000000060448201526064016102fd565b6001600160a01b0382166000908152609b602052604090205461077f576001609a600082825461075d919061137b565b9091555050609a546001600160a01b0383166000908152609b60205260409020555b6001600160a01b0382166000908152609b60209081526040808320548352609c909152902080544310156107f55760405162461bcd60e51b815260206004820152601760248201527f4c53533a20416c7265616479207375627363726962656400000000000000000060448201526064016102fd565b60006099548361080591906113aa565b609854909150610820906001600160a01b0316333084610ec3565b61082a834361137b565b825560995460018301556003820180546001600160a01b031916331790556002820181905560405183906001600160a01b038616907f1e05df24f73db39faa0c2d5d26727d08632debce09833123a69214ba943e07c290600090a350505050565b6001600160a01b0381166000908152609b60209081526040808320548352609c9091529020805443106108f65760405162461bcd60e51b81526020600482015260136024820152721314d4ce88139bdd081cdd589cd8dc9a589959606a1b60448201526064016102fd565b60038101546001600160a01b031633146109525760405162461bcd60e51b815260206004820152601c60248201527f4c53533a204d757374206861766520706179656420666f72207375620000000060448201526064016102fd565b600081600101544383600001546109699190611393565b61097391906113aa565b438355600283018054919250829160009061098f908490611393565b9091555050600060018301556098546109b2906001600160a01b03163383610d92565b6040516001600160a01b038416907ffe21ae794c5d63983c17d3fc57cbded8c0114f89f7276d2aa41a48b6e6340c6190600090a2505050565b6065546001600160a01b03163314610a155760405162461bcd60e51b81526004016102fd906112a9565b6097546001600160a01b0382811691161415610a735760405162461bcd60e51b815260206004820152601c60248201527f4c53533a2043616e6e6f74207365742073616d6520616464726573730000000060448201526064016102fd565b609780546001600160a01b0319166001600160a01b0383169081179091556040517f16469651b6f9bae6132adcef45e773d6f9c78cd97c256777a762e9ae401d1b4690600090a250565b600054610100900460ff16610ad85760005460ff1615610adc565b303b155b610b3f5760405162461bcd60e51b815260206004820152602e60248201527f496e697469616c697a61626c653a20636f6e747261637420697320616c72656160448201526d191e481a5b9a5d1a585b1a5e995960921b60648201526084016102fd565b600054610100900460ff16158015610b61576000805461ffff19166101011790555b610b69610ff9565b610b72836103e2565b610b7b826102d3565b6000609a558015610b92576000805461ff00191690555b505050565b6065546001600160a01b03163314610bc15760405162461bcd60e51b81526004016102fd906112a9565b6001600160a01b038116610c265760405162461bcd60e51b815260206004820152602660248201527f4f776e61626c653a206e6577206f776e657220697320746865207a65726f206160448201526564647265737360d01b60648201526084016102fd565b610c2f81610cc5565b50565b60335460ff16610c7b5760405162461bcd60e51b815260206004820152601460248201527314185d5cd8589b194e881b9bdd081c185d5cd95960621b60448201526064016102fd565b6033805460ff191690557f5db9ee0a495bf2e6ff9c91a7834c1ba4fdd244a5e8aa4e537bd38aeae4b073aa335b6040516001600160a01b03909116815260200160405180910390a1565b606580546001600160a01b038381166001600160a01b0319831681179093556040519116919082907f8be0079c531659141344cd1fd0a4f28419497f9722a3daafe3b4186f6b6457e090600090a35050565b60335460ff1615610d5d5760405162461bcd60e51b815260206004820152601060248201526f14185d5cd8589b194e881c185d5cd95960821b60448201526064016102fd565b6033805460ff191660011790557f62e78cea01bee320cd4e420270b5ea74000d11b0c9f74754ebdbfc544b05a258610ca83390565b604080516001600160a01b038481166024830152604480830185905283518084039091018152606490920183526020820180516001600160e01b031663a9059cbb60e01b1790529151600092839290871691610dee91906113c9565b6000604051808303816000865af19150503d8060008114610e2b576040519150601f19603f3d011682016040523d82523d6000602084013e610e30565b606091505b5091509150818015610e5a575080511580610e5a575080806020019051810190610e5a9190611404565b610ebc5760405162461bcd60e51b815260206004820152602d60248201527f5472616e7366657248656c7065723a3a736166655472616e736665723a20747260448201526c185b9cd9995c8819985a5b1959609a1b60648201526084016102fd565b5050505050565b604080516001600160a01b0385811660248301528481166044830152606480830185905283518084039091018152608490920183526020820180516001600160e01b03166323b872dd60e01b1790529151600092839290881691610f2791906113c9565b6000604051808303816000865af19150503d8060008114610f64576040519150601f19603f3d011682016040523d82523d6000602084013e610f69565b606091505b5091509150818015610f93575080511580610f93575080806020019051810190610f939190611404565b6105a05760405162461bcd60e51b815260206004820152603160248201527f5472616e7366657248656c7065723a3a7472616e7366657246726f6d3a207472604482015270185b9cd9995c919c9bdb4819985a5b1959607a1b60648201526084016102fd565b600054610100900460ff166110205760405162461bcd60e51b81526004016102fd90611426565b6103e0600054610100900460ff1661104a5760405162461bcd60e51b81526004016102fd90611426565b6103e033610cc5565b6001600160a01b0381168114610c2f57600080fd5b60006020828403121561107a57600080fd5b813561108581611053565b9392505050565b60006020828403121561109e57600080fd5b5035919050565b634e487b7160e01b600052604160045260246000fd5b604051601f8201601f1916810167ffffffffffffffff811182821017156110e4576110e46110a5565b604052919050565b600067ffffffffffffffff821115611106576111066110a5565b5060051b60200190565b600082601f83011261112157600080fd5b81356020611136611131836110ec565b6110bb565b82815260059290921b8401810191818101908684111561115557600080fd5b8286015b8481101561118057803560ff811681146111735760008081fd5b8352918301918301611159565b509695505050505050565b6000806040838503121561119e57600080fd5b823567ffffffffffffffff808211156111b657600080fd5b818501915085601f8301126111ca57600080fd5b813560206111da611131836110ec565b82815260059290921b840181019181810190898411156111f957600080fd5b948201945b8386101561122057853561121181611053565b825294820194908201906111fe565b9650508601359250508082111561123657600080fd5b5061124385828601611110565b9150509250929050565b6000806040838503121561126057600080fd5b823561126b81611053565b946020939093013593505050565b6000806040838503121561128c57600080fd5b82359150602083013561129e81611053565b809150509250929050565b6020808252818101527f4f776e61626c653a2063616c6c6572206973206e6f7420746865206f776e6572604082015260600190565b604080825283519082018190526000906020906060840190828701845b828110156113205781516001600160a01b0316845292840192908401906001016112fb565b5050508381038285015284518082528583019183019060005b8181101561135857835160ff1683529284019291840191600101611339565b5090979650505050505050565b634e487b7160e01b600052601160045260246000fd5b6000821982111561138e5761138e611365565b500190565b6000828210156113a5576113a5611365565b500390565b60008160001904831182151516156113c4576113c4611365565b500290565b6000825160005b818110156113ea57602081860181015185830152016113d0565b818111156113f9576000828501525b509190910192915050565b60006020828403121561141657600080fd5b8151801515811461108557600080fd5b6020808252602b908201527f496e697469616c697a61626c653a20636f6e7472616374206973206e6f74206960408201526a6e697469616c697a696e6760a81b60608201526080019056fea2646970667358221220ee40d902758dbe5ef68e80d259aa27e17d8cf4927c37828f29c9b9102ca6e7c364736f6c637828302e382e31322d646576656c6f702e323032322e322e31362b636f6d6d69742e66303064373330380059",
    "linkReferences": {}
  }
}