{
  "abi": [
    {
      "anonymous": false,
      "inputs": [
        {
          "indexed": true,
          "internalType": "address",
          "name": "_oracle",
          "type": "address"
        }
      ],
      "name": "NewOracle",
      "type": "event"
    },
    {
      "anonymous": false,
      "inputs": [
        {
          "indexed": true,
          "internalType": "address",
          "name": "_updatedAddress",
          "type": "address"
        },
        {
          "indexed": true,
          "internalType": "uint8",
          "name": "_updatedScore",
          "type": "uint8"
        }
      ],
      "name": "NewRiskScore",
      "type": "event"
    },
    {
      "anonymous": false,
      "inputs": [
        {
          "indexed": true,
          "internalType": "contract ILssSecurityOracle",
          "name": "_securityOracle",
          "type": "address"
        }
      ],
      "name": "NewSecurityOracle",
      "type": "event"
    },
    {
      "anonymous": false,
      "inputs": [
        {
          "indexed": true,
          "internalType": "address",
          "name": "_address",
          "type": "address"
        },
        {
          "indexed": true,
          "internalType": "uint256",
          "name": "_blocks",
          "type": "uint256"
        }
      ],
      "name": "NewSubscription",
      "type": "event"
    },
    {
      "anonymous": false,
      "inputs": [
        {
          "indexed": true,
          "internalType": "address",
          "name": "_address",
          "type": "address"
        },
        {
          "indexed": true,
          "internalType": "uint256",
          "name": "_blocks",
          "type": "uint256"
        }
      ],
      "name": "NewSubscriptionExtension",
      "type": "event"
    },
    {
      "anonymous": false,
      "inputs": [
        {
          "indexed": true,
          "internalType": "uint256",
          "name": "_subFee",
          "type": "uint256"
        }
      ],
      "name": "NewSubscriptionFee",
      "type": "event"
    },
    {
      "anonymous": false,
      "inputs": [
        {
          "indexed": true,
          "internalType": "contract IERC20",
          "name": "_subToken",
          "type": "address"
        }
      ],
      "name": "NewSubscriptionToken",
      "type": "event"
    },
    {
      "anonymous": false,
      "inputs": [
        {
          "indexed": true,
          "internalType": "uint256",
          "name": "_withdrawPool",
          "type": "uint256"
        }
      ],
      "name": "NewWithdrawal",
      "type": "event"
    },
    {
      "anonymous": false,
      "inputs": [
        {
          "indexed": true,
          "internalType": "address",
          "name": "previousOwner",
          "type": "address"
        },
        {
          "indexed": true,
          "internalType": "address",
          "name": "newOwner",
          "type": "address"
        }
      ],
      "name": "OwnershipTransferred",
      "type": "event"
    },
    {
      "anonymous": false,
      "inputs": [
        {
          "indexed": false,
          "internalType": "address",
          "name": "account",
          "type": "address"
        }
      ],
      "name": "Paused",
      "type": "event"
    },
    {
      "anonymous": false,
      "inputs": [
        {
          "indexed": true,
          "internalType": "bytes32",
          "name": "role",
          "type": "bytes32"
        },
        {
          "indexed": true,
          "internalType": "bytes32",
          "name": "previousAdminRole",
          "type": "bytes32"
        },
        {
          "indexed": true,
          "internalType": "bytes32",
          "name": "newAdminRole",
          "type": "bytes32"
        }
      ],
      "name": "RoleAdminChanged",
      "type": "event"
    },
    {
      "anonymous": false,
      "inputs": [
        {
          "indexed": true,
          "internalType": "bytes32",
          "name": "role",
          "type": "bytes32"
        },
        {
          "indexed": true,
          "internalType": "address",
          "name": "account",
          "type": "address"
        },
        {
          "indexed": true,
          "internalType": "address",
          "name": "sender",
          "type": "address"
        }
      ],
      "name": "RoleGranted",
      "type": "event"
    },
    {
      "anonymous": false,
      "inputs": [
        {
          "indexed": true,
          "internalType": "bytes32",
          "name": "role",
          "type": "bytes32"
        },
        {
          "indexed": true,
          "internalType": "address",
          "name": "account",
          "type": "address"
        },
        {
          "indexed": true,
          "internalType": "address",
          "name": "sender",
          "type": "address"
        }
      ],
      "name": "RoleRevoked",
      "type": "event"
    },
    {
      "anonymous": false,
      "inputs": [
        {
          "indexed": false,
          "internalType": "address",
          "name": "account",
          "type": "address"
        }
      ],
      "name": "Unpaused",
      "type": "event"
    },
    {
      "inputs": [],
      "name": "DEFAULT_ADMIN_ROLE",
      "outputs": [
        {
          "internalType": "bytes32",
          "name": "",
          "type": "bytes32"
        }
      ],
      "stateMutability": "view",
      "type": "function"
    },
    {
      "inputs": [],
      "name": "ORACLE",
      "outputs": [
        {
          "internalType": "bytes32",
          "name": "",
          "type": "bytes32"
        }
      ],
      "stateMutability": "view",
      "type": "function"
    },
    {
      "inputs": [
        {
          "internalType": "address",
          "name": "_address",
          "type": "address"
        },
        {
          "internalType": "uint256",
          "name": "_blocks",
          "type": "uint256"
        }
      ],
      "name": "extendSubscription",
      "outputs": [],
      "stateMutability": "nonpayable",
      "type": "function"
    },
    {
      "inputs": [
        {
          "internalType": "address",
          "name": "_address",
          "type": "address"
        }
      ],
      "name": "getIsSubscribed",
      "outputs": [
        {
          "internalType": "bool",
          "name": "",
          "type": "bool"
        }
      ],
      "stateMutability": "view",
      "type": "function"
    },
    {
      "inputs": [
        {
          "internalType": "address",
          "name": "_address",
          "type": "address"
        }
      ],
      "name": "getRiskScore",
      "outputs": [
        {
          "internalType": "uint8",
          "name": "",
          "type": "uint8"
        }
      ],
      "stateMutability": "view",
      "type": "function"
    },
    {
      "inputs": [
        {
          "internalType": "bytes32",
          "name": "role",
          "type": "bytes32"
        }
      ],
      "name": "getRoleAdmin",
      "outputs": [
        {
          "internalType": "bytes32",
          "name": "",
          "type": "bytes32"
        }
      ],
      "stateMutability": "view",
      "type": "function"
    },
    {
      "inputs": [
        {
          "internalType": "bytes32",
          "name": "role",
          "type": "bytes32"
        },
        {
          "internalType": "address",
          "name": "account",
          "type": "address"
        }
      ],
      "name": "grantRole",
      "outputs": [],
      "stateMutability": "nonpayable",
      "type": "function"
    },
    {
      "inputs": [
        {
          "internalType": "bytes32",
          "name": "role",
          "type": "bytes32"
        },
        {
          "internalType": "address",
          "name": "account",
          "type": "address"
        }
      ],
      "name": "hasRole",
      "outputs": [
        {
          "internalType": "bool",
          "name": "",
          "type": "bool"
        }
      ],
      "stateMutability": "view",
      "type": "function"
    },
    {
      "inputs": [
        {
          "internalType": "address",
          "name": "_oracle",
          "type": "address"
        },
        {
          "internalType": "uint256",
          "name": "_subsricption",
          "type": "uint256"
        },
        {
          "internalType": "contract IERC20",
          "name": "_subToken",
          "type": "address"
        }
      ],
      "name": "initialize",
      "outputs": [],
      "stateMutability": "nonpayable",
      "type": "function"
    },
    {
      "inputs": [],
      "name": "oracle",
      "outputs": [
        {
          "internalType": "address",
          "name": "",
          "type": "address"
        }
      ],
      "stateMutability": "view",
      "type": "function"
    },
    {
      "inputs": [],
      "name": "owner",
      "outputs": [
        {
          "internalType": "address",
          "name": "",
          "type": "address"
        }
      ],
      "stateMutability": "view",
      "type": "function"
    },
    {
      "inputs": [],
      "name": "pause",
      "outputs": [],
      "stateMutability": "nonpayable",
      "type": "function"
    },
    {
      "inputs": [],
      "name": "paused",
      "outputs": [
        {
          "internalType": "bool",
          "name": "",
          "type": "bool"
        }
      ],
      "stateMutability": "view",
      "type": "function"
    },
    {
      "inputs": [],
      "name": "renounceOwnership",
      "outputs": [],
      "stateMutability": "nonpayable",
      "type": "function"
    },
    {
      "inputs": [
        {
          "internalType": "bytes32",
          "name": "role",
          "type": "bytes32"
        },
        {
          "internalType": "address",
          "name": "account",
          "type": "address"
        }
      ],
      "name": "renounceRole",
      "outputs": [],
      "stateMutability": "nonpayable",
      "type": "function"
    },
    {
      "inputs": [
        {
          "internalType": "bytes32",
          "name": "role",
          "type": "bytes32"
        },
        {
          "internalType": "address",
          "name": "account",
          "type": "address"
        }
      ],
      "name": "revokeRole",
      "outputs": [],
      "stateMutability": "nonpayable",
      "type": "function"
    },
    {
      "inputs": [
        {
          "internalType": "address",
          "name": "",
          "type": "address"
        }
      ],
      "name": "riskScores",
      "outputs": [
        {
          "internalType": "uint8",
          "name": "",
          "type": "uint8"
        }
      ],
      "stateMutability": "view",
      "type": "function"
    },
    {
      "inputs": [
        {
          "internalType": "address",
          "name": "_oracle",
          "type": "address"
        }
      ],
      "name": "setOracle",
      "outputs": [],
      "stateMutability": "nonpayable",
      "type": "function"
    },
    {
      "inputs": [
        {
          "internalType": "address[]",
          "name": "_addresses",
          "type": "address[]"
        },
        {
          "internalType": "uint8[]",
          "name": "_scores",
          "type": "uint8[]"
        }
      ],
      "name": "setRiskScores",
      "outputs": [],
      "stateMutability": "nonpayable",
      "type": "function"
    },
    {
      "inputs": [
        {
          "internalType": "uint256",
          "name": "_sub",
          "type": "uint256"
        }
      ],
      "name": "setSubscriptionFee",
      "outputs": [],
      "stateMutability": "nonpayable",
      "type": "function"
    },
    {
      "inputs": [
        {
          "internalType": "contract IERC20",
          "name": "_token",
          "type": "address"
        }
      ],
      "name": "setSubscriptionToken",
      "outputs": [],
      "stateMutability": "nonpayable",
      "type": "function"
    },
    {
      "inputs": [],
      "name": "subFee",
      "outputs": [
        {
          "internalType": "uint256",
          "name": "",
          "type": "uint256"
        }
      ],
      "stateMutability": "view",
      "type": "function"
    },
    {
      "inputs": [
        {
          "internalType": "address",
          "name": "",
          "type": "address"
        }
      ],
      "name": "subNo",
      "outputs": [
        {
          "internalType": "uint256",
          "name": "",
          "type": "uint256"
        }
      ],
      "stateMutability": "view",
      "type": "function"
    },
    {
      "inputs": [],
      "name": "subToken",
      "outputs": [
        {
          "internalType": "contract IERC20",
          "name": "",
          "type": "address"
        }
      ],
      "stateMutability": "view",
      "type": "function"
    },
    {
      "inputs": [
        {
          "internalType": "address",
          "name": "_address",
          "type": "address"
        },
        {
          "internalType": "uint256",
          "name": "_blocks",
          "type": "uint256"
        }
      ],
      "name": "subscribe",
      "outputs": [],
      "stateMutability": "nonpayable",
      "type": "function"
    },
    {
      "inputs": [
        {
          "internalType": "bytes4",
          "name": "interfaceId",
          "type": "bytes4"
        }
      ],
      "name": "supportsInterface",
      "outputs": [
        {
          "internalType": "bool",
          "name": "",
          "type": "bool"
        }
      ],
      "stateMutability": "view",
      "type": "function"
    },
    {
      "inputs": [],
      "name": "totalUniqueSubs",
      "outputs": [
        {
          "internalType": "uint256",
          "name": "",
          "type": "uint256"
        }
      ],
      "stateMutability": "view",
      "type": "function"
    },
    {
      "inputs": [
        {
          "internalType": "address",
          "name": "newOwner",
          "type": "address"
        }
      ],
      "name": "transferOwnership",
      "outputs": [],
      "stateMutability": "nonpayable",
      "type": "function"
    },
    {
      "inputs": [],
      "name": "unpause",
      "outputs": [],
      "stateMutability": "nonpayable",
      "type": "function"
    },
    {
      "inputs": [],
      "name": "withdrawTokens",
      "outputs": [
        {
          "internalType": "uint256",
          "name": "",
          "type": "uint256"
        }
      ],
      "stateMutability": "nonpayable",
      "type": "function"
    }
  ],
  "bytecode": {
    "object": "0x608060405234801561001057600080fd5b50611bd0806100206000396000f3fe608060405234801561001057600080fd5b50600436106101da5760003560e01c80637dc0d1d011610104578063a217fddf116100a2578063d547741f11610071578063d547741f1461041e578063dc08706d14610431578063e9ffa9f414610444578063f2fde38b1461045757600080fd5b8063a217fddf146103dd578063c350a1b5146103e5578063ca305ee0146103f8578063d2b5b72c1461040b57600080fd5b80638d8f2adb116100de5780638d8f2adb1461039e5780638da5cb5b146103a65780638de69284146103b757806391d14854146103ca57600080fd5b80637dc0d1d01461034b5780637fb9268e146103765780638456cb591461039657600080fd5b80633f4ba83a1161017c5780635e5b87521161014b5780635e5b8752146102e75780636ac849561461031d578063715018a6146103305780637adbf9731461033857600080fd5b80633f4ba83a14610291578063453e01ad14610299578063587544c3146102d35780635c975abb146102dc57600080fd5b80632ac893a0116101b85780632ac893a0146102415780632f2ff15d1461025657806336568abe1461026957806338013f021461027c57600080fd5b806301ffc9a7146101df5780631fec649314610207578063248a9ca31461021e575b600080fd5b6101f26101ed36600461168d565b61046a565b60405190151581526020015b60405180910390f35b61021060fc5481565b6040519081526020016101fe565b61021061022c3660046116b7565b600090815260c9602052604090206001015490565b61025461024f3660046116e5565b6104a1565b005b610254610264366004611702565b61057c565b610254610277366004611702565b6105a7565b610210600080516020611b5583398151915281565b610254610625565b6101f26102a73660046116e5565b6001600160a01b0316600090815260ff6020908152604080832054835261010190915290205443111590565b61021060fd5481565b60335460ff166101f2565b61030b6102f53660046116e5565b6101006020526000908152604090205460ff1681565b60405160ff90911681526020016101fe565b61025461032b3660046116b7565b610659565b610254610708565b6102546103463660046116e5565b61073c565b60fe5461035e906001600160a01b031681565b6040516001600160a01b0390911681526020016101fe565b6102106103843660046116e5565b60ff6020526000908152604090205481565b61025461081e565b610210610850565b6065546001600160a01b031661035e565b6102546103c5366004611732565b61090d565b6101f26103d8366004611702565b610a87565b610210600081565b6102546103f336600461175e565b610ab2565b610254610406366004611886565b610ba1565b610254610419366004611732565b610d00565b61025461042c366004611702565b610e53565b61030b61043f3660046116e5565b610e79565b60fb5461035e906001600160a01b031681565b6102546104653660046116e5565b610ec6565b60006001600160e01b03198216637965db0b60e01b148061049b57506301ffc9a760e01b6001600160e01b03198316145b92915050565b6065546001600160a01b031633146104d45760405162461bcd60e51b81526004016104cb90611948565b60405180910390fd5b60fb546001600160a01b03828116911614156105325760405162461bcd60e51b815260206004820152601a60248201527f4c53533a2043616e6e6f74207365742073616d6520746f6b656e00000000000060448201526064016104cb565b60fb80546001600160a01b0319166001600160a01b0383169081179091556040517ff9ae0423c847ec8129e1d3a9ca8480341e82d7098f7dc4660f4fc0495a916d1a90600090a250565b600082815260c960205260409020600101546105988133610f61565b6105a28383610fc5565b505050565b6001600160a01b03811633146106175760405162461bcd60e51b815260206004820152602f60248201527f416363657373436f6e74726f6c3a2063616e206f6e6c792072656e6f756e636560448201526e103937b632b9903337b91039b2b63360891b60648201526084016104cb565b610621828261104b565b5050565b6065546001600160a01b0316331461064f5760405162461bcd60e51b81526004016104cb90611948565b6106576110b2565b565b6065546001600160a01b031633146106835760405162461bcd60e51b81526004016104cb90611948565b8060fc5414156106d55760405162461bcd60e51b815260206004820152601b60248201527f4c53533a2043616e6e6f74207365742073616d6520616d6f756e74000000000060448201526064016104cb565b60fc81905560405181907f85d4a02d5fc7d0c65a3057977b8c9ec75d25c5aed9a7ee054abe838bd4145e1b90600090a250565b6065546001600160a01b031633146107325760405162461bcd60e51b81526004016104cb90611948565b6106576000611145565b6065546001600160a01b031633146107665760405162461bcd60e51b81526004016104cb90611948565b61077e600080516020611b5583398151915282610a87565b156107cb5760405162461bcd60e51b815260206004820152601c60248201527f4c53533a2043616e6e6f74207365742073616d6520616464726573730000000060448201526064016104cb565b6107e3600080516020611b558339815191528261057c565b60fe546040516001600160a01b03909116907fb3eacd0e351fafdfefdec84e1cd19679b38dbcd63ea7c2c24da17fd2bc3b3c0e90600090a250565b6065546001600160a01b031633146108485760405162461bcd60e51b81526004016104cb90611948565b610657611197565b6065546000906001600160a01b0316331461087d5760405162461bcd60e51b81526004016104cb90611948565b6000805b60fd5481116108c5576000818152610101602052604090206001810154156108bc5760018101546108b29084611993565b6000600183015592505b50600101610881565b5060fb546108dd906001600160a01b03163383611212565b60405181907f58eb5dbbf019b25979cf9b1f2b727523a9b05c3a44820f08bed539287844cefd90600090a2905090565b6001600160a01b0382166109635760405162461bcd60e51b815260206004820152601c60248201527f4c53533a2043616e6e6f7420737562207a65726f20616464726573730000000060448201526064016104cb565b6001600160a01b038216600090815260ff6020526040902054156109c95760405162461bcd60e51b815260206004820152601f60248201527f4c53533a20416c726561647920737562736372696265642c20657874656e640060448201526064016104cb565b600160fd60008282546109dc9190611993565b909155505060fd546001600160a01b038316600090815260ff60209081526040808320849055928252610101905290812060fc54909190610a1d90846119ab565b60fb54909150610a38906001600160a01b0316333084611343565b610a428343611993565b82556001820181905560405183906001600160a01b038616907f1e05df24f73db39faa0c2d5d26727d08632debce09833123a69214ba943e07c290600090a350505050565b600091825260c9602090815260408084206001600160a01b0393909316845291905290205460ff1690565b600054610100900460ff16610acd5760005460ff1615610ad1565b303b155b610b345760405162461bcd60e51b815260206004820152602e60248201527f496e697469616c697a61626c653a20636f6e747261637420697320616c72656160448201526d191e481a5b9a5d1a585b1a5e995960921b60648201526084016104cb565b600054610100900460ff16158015610b56576000805461ffff19166101011790555b610b5e611481565b610b696000336114b0565b610b7283610659565b610b7b826104a1565b610b848461073c565b600060fd558015610b9b576000805461ff00191690555b50505050565b610bb9600080516020611b5583398151915233610a87565b610c055760405162461bcd60e51b815260206004820152601b60248201527f4c53533a204f6e6c79204f7261636c6520436f6e74726f6c6c6572000000000060448201526064016104cb565b815181518114610c575760405162461bcd60e51b815260206004820152601860248201527f4c53533a2041727261797320646f206e6f74206d61746368000000000000000060448201526064016104cb565b60005b81811015610b9b576000848281518110610c7657610c766119ca565b602002602001015190506000848381518110610c9457610c946119ca565b6020908102919091018101516001600160a01b03841660008181526101009093526040808420805460ff191660ff851690811790915590519294509290917f2cb19e7f0f90040467ae898aaf5424bccd8750a9c61c23c36c277397b28187409190a35050600101610c5a565b6001600160a01b038216600090815260ff6020908152604080832054835261010190915290208054610d6a5760405162461bcd60e51b81526020600482015260136024820152721314d4ce88139bdd081cdd589cd8dc9a589959606a1b60448201526064016104cb565b8054610d768343611993565b1015610dc45760405162461bcd60e51b815260206004820152601d60248201527f4c53533a20457874656e73696f6e20706572696f6420636f766572656400000060448201526064016104cb565b600060fc5483610dd491906119ab565b60fb54909150610def906001600160a01b0316333084611343565b610df98343611993565b8255600182018054829190600090610e12908490611993565b909155505060405183906001600160a01b038616907fdf383c361ca99a1a489f2e5bc53f4e98515c2dee680062911ebf80d51fbfe14290600090a350505050565b600082815260c96020526040902060010154610e6f8133610f61565b6105a2838361104b565b33600090815260ff60209081526040808320548352610101909152812054431115610ea657506000919050565b506001600160a01b03166000908152610100602052604090205460ff1690565b6065546001600160a01b03163314610ef05760405162461bcd60e51b81526004016104cb90611948565b6001600160a01b038116610f555760405162461bcd60e51b815260206004820152602660248201527f4f776e61626c653a206e6577206f776e657220697320746865207a65726f206160448201526564647265737360d01b60648201526084016104cb565b610f5e81611145565b50565b610f6b8282610a87565b61062157610f83816001600160a01b031660146114ba565b610f8e8360206114ba565b604051602001610f9f929190611a0c565b60408051601f198184030181529082905262461bcd60e51b82526104cb91600401611a81565b610fcf8282610a87565b61062157600082815260c9602090815260408083206001600160a01b03851684529091529020805460ff191660011790556110073390565b6001600160a01b0316816001600160a01b0316837f2f8788117e7eff1d82e926ec794901d17c78024a50270940304540a733656f0d60405160405180910390a45050565b6110558282610a87565b1561062157600082815260c9602090815260408083206001600160a01b0385168085529252808320805460ff1916905551339285917ff6391f5c32d9c69d2a47ea670b442974b53935d1edc7fd64eb21e047a839171b9190a45050565b60335460ff166110fb5760405162461bcd60e51b815260206004820152601460248201527314185d5cd8589b194e881b9bdd081c185d5cd95960621b60448201526064016104cb565b6033805460ff191690557f5db9ee0a495bf2e6ff9c91a7834c1ba4fdd244a5e8aa4e537bd38aeae4b073aa335b6040516001600160a01b03909116815260200160405180910390a1565b606580546001600160a01b038381166001600160a01b0319831681179093556040519116919082907f8be0079c531659141344cd1fd0a4f28419497f9722a3daafe3b4186f6b6457e090600090a35050565b60335460ff16156111dd5760405162461bcd60e51b815260206004820152601060248201526f14185d5cd8589b194e881c185d5cd95960821b60448201526064016104cb565b6033805460ff191660011790557f62e78cea01bee320cd4e420270b5ea74000d11b0c9f74754ebdbfc544b05a2586111283390565b604080516001600160a01b038481166024830152604480830185905283518084039091018152606490920183526020820180516001600160e01b031663a9059cbb60e01b179052915160009283929087169161126e9190611ab4565b6000604051808303816000865af19150503d80600081146112ab576040519150601f19603f3d011682016040523d82523d6000602084013e6112b0565b606091505b50915091508180156112da5750805115806112da5750808060200190518101906112da9190611ad0565b61133c5760405162461bcd60e51b815260206004820152602d60248201527f5472616e7366657248656c7065723a3a736166655472616e736665723a20747260448201526c185b9cd9995c8819985a5b1959609a1b60648201526084016104cb565b5050505050565b604080516001600160a01b0385811660248301528481166044830152606480830185905283518084039091018152608490920183526020820180516001600160e01b03166323b872dd60e01b17905291516000928392908816916113a79190611ab4565b6000604051808303816000865af19150503d80600081146113e4576040519150601f19603f3d011682016040523d82523d6000602084013e6113e9565b606091505b50915091508180156114135750805115806114135750808060200190518101906114139190611ad0565b6114795760405162461bcd60e51b815260206004820152603160248201527f5472616e7366657248656c7065723a3a7472616e7366657246726f6d3a207472604482015270185b9cd9995c919c9bdb4819985a5b1959607a1b60648201526084016104cb565b505050505050565b600054610100900460ff166114a85760405162461bcd60e51b81526004016104cb90611af2565b61065761165d565b6106218282610fc5565b606060006114c98360026119ab565b6114d4906002611993565b67ffffffffffffffff8111156114ec576114ec6117a0565b6040519080825280601f01601f191660200182016040528015611516576020820181803683370190505b509050600360fc1b81600081518110611531576115316119ca565b60200101906001600160f81b031916908160001a905350600f60fb1b81600181518110611560576115606119ca565b60200101906001600160f81b031916908160001a90535060006115848460026119ab565b61158f906001611993565b90505b6001811115611607576f181899199a1a9b1b9c1cb0b131b232b360811b85600f16601081106115c3576115c36119ca565b1a60f81b8282815181106115d9576115d96119ca565b60200101906001600160f81b031916908160001a90535060049490941c9361160081611b3d565b9050611592565b5083156116565760405162461bcd60e51b815260206004820181905260248201527f537472696e67733a20686578206c656e67746820696e73756666696369656e7460448201526064016104cb565b9392505050565b600054610100900460ff166116845760405162461bcd60e51b81526004016104cb90611af2565b61065733611145565b60006020828403121561169f57600080fd5b81356001600160e01b03198116811461165657600080fd5b6000602082840312156116c957600080fd5b5035919050565b6001600160a01b0381168114610f5e57600080fd5b6000602082840312156116f757600080fd5b8135611656816116d0565b6000806040838503121561171557600080fd5b823591506020830135611727816116d0565b809150509250929050565b6000806040838503121561174557600080fd5b8235611750816116d0565b946020939093013593505050565b60008060006060848603121561177357600080fd5b833561177e816116d0565b9250602084013591506040840135611795816116d0565b809150509250925092565b634e487b7160e01b600052604160045260246000fd5b604051601f8201601f1916810167ffffffffffffffff811182821017156117df576117df6117a0565b604052919050565b600067ffffffffffffffff821115611801576118016117a0565b5060051b60200190565b600082601f83011261181c57600080fd5b8135602061183161182c836117e7565b6117b6565b82815260059290921b8401810191818101908684111561185057600080fd5b8286015b8481101561187b57803560ff8116811461186e5760008081fd5b8352918301918301611854565b509695505050505050565b6000806040838503121561189957600080fd5b823567ffffffffffffffff808211156118b157600080fd5b818501915085601f8301126118c557600080fd5b813560206118d561182c836117e7565b82815260059290921b840181019181810190898411156118f457600080fd5b948201945b8386101561191b57853561190c816116d0565b825294820194908201906118f9565b9650508601359250508082111561193157600080fd5b5061193e8582860161180b565b9150509250929050565b6020808252818101527f4f776e61626c653a2063616c6c6572206973206e6f7420746865206f776e6572604082015260600190565b634e487b7160e01b600052601160045260246000fd5b600082198211156119a6576119a661197d565b500190565b60008160001904831182151516156119c5576119c561197d565b500290565b634e487b7160e01b600052603260045260246000fd5b60005b838110156119fb5781810151838201526020016119e3565b83811115610b9b5750506000910152565b7f416363657373436f6e74726f6c3a206163636f756e7420000000000000000000815260008351611a448160178501602088016119e0565b7001034b99036b4b9b9b4b733903937b6329607d1b6017918401918201528351611a758160288401602088016119e0565b01602801949350505050565b6020815260008251806020840152611aa08160408501602087016119e0565b601f01601f19169190910160400192915050565b60008251611ac68184602087016119e0565b9190910192915050565b600060208284031215611ae257600080fd5b8151801515811461165657600080fd5b6020808252602b908201527f496e697469616c697a61626c653a20636f6e7472616374206973206e6f74206960408201526a6e697469616c697a696e6760a81b606082015260800190565b600081611b4c57611b4c61197d565b50600019019056fe352d05fe3946dbe49277552ba941e744d5a96d9c60bc1ba0ea5f1d3ae000f7c8a2646970667358221220c3ef7cf121909c712338f525753c6e24ae51c0d8971e23ff951597c3c56c47bd64736f6c637828302e382e31322d646576656c6f702e323032322e322e31362b636f6d6d69742e66303064373330380059",
    "linkReferences": {}
  }
}