{
  "abi": [
    {
      "anonymous": false,
      "inputs": [
        {
          "indexed": true,
          "internalType": "address",
          "name": "_oracle",
          "type": "address"
        }
      ],
      "name": "NewOracle",
      "type": "event"
    },
    {
      "anonymous": false,
      "inputs": [
        {
          "indexed": true,
          "internalType": "address",
          "name": "_updatedAddress",
          "type": "address"
        },
        {
          "indexed": true,
          "internalType": "uint8",
          "name": "_updatedScore",
          "type": "uint8"
        }
      ],
      "name": "NewRiskScore",
      "type": "event"
    },
    {
      "anonymous": false,
      "inputs": [
        {
          "indexed": true,
          "internalType": "contract ILssSecurityOracle",
          "name": "_securityOracle",
          "type": "address"
        }
      ],
      "name": "NewSecurityOracle",
      "type": "event"
    },
    {
      "anonymous": false,
      "inputs": [
        {
          "indexed": true,
          "internalType": "address",
          "name": "_address",
          "type": "address"
        },
        {
          "indexed": true,
          "internalType": "uint256",
          "name": "_blocks",
          "type": "uint256"
        }
      ],
      "name": "NewSubscription",
      "type": "event"
    },
    {
      "anonymous": false,
      "inputs": [
        {
          "indexed": true,
          "internalType": "address",
          "name": "_address",
          "type": "address"
        },
        {
          "indexed": true,
          "internalType": "uint256",
          "name": "_blocks",
          "type": "uint256"
        }
      ],
      "name": "NewSubscriptionExtension",
      "type": "event"
    },
    {
      "anonymous": false,
      "inputs": [
        {
          "indexed": true,
          "internalType": "uint256",
          "name": "_subFee",
          "type": "uint256"
        }
      ],
      "name": "NewSubscriptionFee",
      "type": "event"
    },
    {
      "anonymous": false,
      "inputs": [
        {
          "indexed": true,
          "internalType": "contract IERC20",
          "name": "_subToken",
          "type": "address"
        }
      ],
      "name": "NewSubscriptionToken",
      "type": "event"
    },
    {
      "anonymous": false,
      "inputs": [
        {
          "indexed": true,
          "internalType": "uint256",
          "name": "_withdrawPool",
          "type": "uint256"
        }
      ],
      "name": "NewWithdrawal",
      "type": "event"
    },
    {
      "anonymous": false,
      "inputs": [
        {
          "indexed": true,
          "internalType": "address",
          "name": "previousOwner",
          "type": "address"
        },
        {
          "indexed": true,
          "internalType": "address",
          "name": "newOwner",
          "type": "address"
        }
      ],
      "name": "OwnershipTransferred",
      "type": "event"
    },
    {
      "anonymous": false,
      "inputs": [
        {
          "indexed": false,
          "internalType": "address",
          "name": "account",
          "type": "address"
        }
      ],
      "name": "Paused",
      "type": "event"
    },
    {
      "anonymous": false,
      "inputs": [
        {
          "indexed": false,
          "internalType": "address",
          "name": "account",
          "type": "address"
        }
      ],
      "name": "Unpaused",
      "type": "event"
    },
    {
      "inputs": [
        {
          "internalType": "address",
          "name": "_address",
          "type": "address"
        },
        {
          "internalType": "uint256",
          "name": "_blocks",
          "type": "uint256"
        }
      ],
      "name": "extendSubscription",
      "outputs": [],
      "stateMutability": "nonpayable",
      "type": "function"
    },
    {
      "inputs": [
        {
          "internalType": "address",
          "name": "_address",
          "type": "address"
        }
      ],
      "name": "getIsSubscribed",
      "outputs": [
        {
          "internalType": "bool",
          "name": "",
          "type": "bool"
        }
      ],
      "stateMutability": "view",
      "type": "function"
    },
    {
      "inputs": [
        {
          "internalType": "address",
          "name": "_address",
          "type": "address"
        }
      ],
      "name": "getRiskScore",
      "outputs": [
        {
          "internalType": "uint8",
          "name": "",
          "type": "uint8"
        }
      ],
      "stateMutability": "view",
      "type": "function"
    },
    {
      "inputs": [
        {
          "internalType": "address",
          "name": "_oracle",
          "type": "address"
        },
        {
          "internalType": "uint256",
          "name": "_subsricption",
          "type": "uint256"
        },
        {
          "internalType": "contract IERC20",
          "name": "_subToken",
          "type": "address"
        }
      ],
      "name": "initialize",
      "outputs": [],
      "stateMutability": "nonpayable",
      "type": "function"
    },
    {
      "inputs": [],
      "name": "oracle",
      "outputs": [
        {
          "internalType": "address",
          "name": "",
          "type": "address"
        }
      ],
      "stateMutability": "view",
      "type": "function"
    },
    {
      "inputs": [],
      "name": "owner",
      "outputs": [
        {
          "internalType": "address",
          "name": "",
          "type": "address"
        }
      ],
      "stateMutability": "view",
      "type": "function"
    },
    {
      "inputs": [],
      "name": "pause",
      "outputs": [],
      "stateMutability": "nonpayable",
      "type": "function"
    },
    {
      "inputs": [],
      "name": "paused",
      "outputs": [
        {
          "internalType": "bool",
          "name": "",
          "type": "bool"
        }
      ],
      "stateMutability": "view",
      "type": "function"
    },
    {
      "inputs": [],
      "name": "renounceOwnership",
      "outputs": [],
      "stateMutability": "nonpayable",
      "type": "function"
    },
    {
      "inputs": [
        {
          "internalType": "address",
          "name": "",
          "type": "address"
        }
      ],
      "name": "riskScores",
      "outputs": [
        {
          "internalType": "uint8",
          "name": "",
          "type": "uint8"
        }
      ],
      "stateMutability": "view",
      "type": "function"
    },
    {
      "inputs": [
        {
          "internalType": "address",
          "name": "_oracle",
          "type": "address"
        }
      ],
      "name": "setOracle",
      "outputs": [],
      "stateMutability": "nonpayable",
      "type": "function"
    },
    {
      "inputs": [
        {
          "internalType": "address[]",
          "name": "_addresses",
          "type": "address[]"
        },
        {
          "internalType": "uint8[]",
          "name": "_scores",
          "type": "uint8[]"
        }
      ],
      "name": "setRiskScores",
      "outputs": [],
      "stateMutability": "nonpayable",
      "type": "function"
    },
    {
      "inputs": [
        {
          "internalType": "uint256",
          "name": "_sub",
          "type": "uint256"
        }
      ],
      "name": "setSubscriptionFee",
      "outputs": [],
      "stateMutability": "nonpayable",
      "type": "function"
    },
    {
      "inputs": [
        {
          "internalType": "contract IERC20",
          "name": "_token",
          "type": "address"
        }
      ],
      "name": "setSubscriptionToken",
      "outputs": [],
      "stateMutability": "nonpayable",
      "type": "function"
    },
    {
      "inputs": [],
      "name": "subFee",
      "outputs": [
        {
          "internalType": "uint256",
          "name": "",
          "type": "uint256"
        }
      ],
      "stateMutability": "view",
      "type": "function"
    },
    {
      "inputs": [
        {
          "internalType": "address",
          "name": "",
          "type": "address"
        }
      ],
      "name": "subNo",
      "outputs": [
        {
          "internalType": "uint256",
          "name": "",
          "type": "uint256"
        }
      ],
      "stateMutability": "view",
      "type": "function"
    },
    {
      "inputs": [],
      "name": "subToken",
      "outputs": [
        {
          "internalType": "contract IERC20",
          "name": "",
          "type": "address"
        }
      ],
      "stateMutability": "view",
      "type": "function"
    },
    {
      "inputs": [
        {
          "internalType": "address",
          "name": "_address",
          "type": "address"
        },
        {
          "internalType": "uint256",
          "name": "_blocks",
          "type": "uint256"
        }
      ],
      "name": "subscribe",
      "outputs": [],
      "stateMutability": "nonpayable",
      "type": "function"
    },
    {
      "inputs": [],
      "name": "totalUniqueSubs",
      "outputs": [
        {
          "internalType": "uint256",
          "name": "",
          "type": "uint256"
        }
      ],
      "stateMutability": "view",
      "type": "function"
    },
    {
      "inputs": [
        {
          "internalType": "address",
          "name": "newOwner",
          "type": "address"
        }
      ],
      "name": "transferOwnership",
      "outputs": [],
      "stateMutability": "nonpayable",
      "type": "function"
    },
    {
      "inputs": [],
      "name": "unpause",
      "outputs": [],
      "stateMutability": "nonpayable",
      "type": "function"
    },
    {
      "inputs": [],
      "name": "withdrawTokens",
      "outputs": [
        {
          "internalType": "uint256",
          "name": "",
          "type": "uint256"
        }
      ],
      "stateMutability": "nonpayable",
      "type": "function"
    }
  ],
  "bytecode": {
    "object": "0x608060405234801561001057600080fd5b506114f9806100206000396000f3fe608060405234801561001057600080fd5b50600436106101425760003560e01c80637fb9268e116100b8578063c350a1b51161007c578063c350a1b5146102bf578063ca305ee0146102d2578063d2b5b72c146102e5578063dc08706d146102f8578063e9ffa9f41461030b578063f2fde38b1461031e57600080fd5b80637fb9268e1461026b5780638456cb591461028b5780638d8f2adb146102935780638da5cb5b1461029b5780638de69284146102ac57600080fd5b80635c975abb1161010a5780635c975abb146101d25780635e5b8752146101dd5780636ac8495614610212578063715018a6146102255780637adbf9731461022d5780637dc0d1d01461024057600080fd5b80631fec6493146101475780632ac893a0146101635780633f4ba83a14610178578063453e01ad14610180578063587544c3146101c9575b600080fd5b61015060985481565b6040519081526020015b60405180910390f35b61017661017136600461110a565b610331565b005b61017661040c565b6101b961018e36600461110a565b6001600160a01b03166000908152609b60209081526040808320548352609d90915290205443111590565b604051901515815260200161015a565b61015060995481565b60335460ff166101b9565b6102006101eb36600461110a565b609c6020526000908152604090205460ff1681565b60405160ff909116815260200161015a565b61017661022036600461112e565b610440565b6101766104ef565b61017661023b36600461110a565b610523565b609a54610253906001600160a01b031681565b6040516001600160a01b03909116815260200161015a565b61015061027936600461110a565b609b6020526000908152604090205481565b6101766105f5565b610150610627565b6065546001600160a01b0316610253565b6101766102ba366004611147565b6106e3565b6101766102cd366004611173565b61085c565b6101766102e036600461129b565b610940565b6101766102f3366004611147565b610a94565b61020061030636600461110a565b610be6565b609754610253906001600160a01b031681565b61017661032c36600461110a565b610c31565b6065546001600160a01b031633146103645760405162461bcd60e51b815260040161035b9061135d565b60405180910390fd5b6097546001600160a01b03828116911614156103c25760405162461bcd60e51b815260206004820152601a60248201527f4c53533a2043616e6e6f74207365742073616d6520746f6b656e000000000000604482015260640161035b565b609780546001600160a01b0319166001600160a01b0383169081179091556040517ff9ae0423c847ec8129e1d3a9ca8480341e82d7098f7dc4660f4fc0495a916d1a90600090a250565b6065546001600160a01b031633146104365760405162461bcd60e51b815260040161035b9061135d565b61043e610ccc565b565b6065546001600160a01b0316331461046a5760405162461bcd60e51b815260040161035b9061135d565b8060985414156104bc5760405162461bcd60e51b815260206004820152601b60248201527f4c53533a2043616e6e6f74207365742073616d6520616d6f756e740000000000604482015260640161035b565b609881905560405181907f85d4a02d5fc7d0c65a3057977b8c9ec75d25c5aed9a7ee054abe838bd4145e1b90600090a250565b6065546001600160a01b031633146105195760405162461bcd60e51b815260040161035b9061135d565b61043e6000610d5f565b6065546001600160a01b0316331461054d5760405162461bcd60e51b815260040161035b9061135d565b609a546001600160a01b03828116911614156105ab5760405162461bcd60e51b815260206004820152601c60248201527f4c53533a2043616e6e6f74207365742073616d65206164647265737300000000604482015260640161035b565b609a80546001600160a01b0319166001600160a01b0383169081179091556040517fb3eacd0e351fafdfefdec84e1cd19679b38dbcd63ea7c2c24da17fd2bc3b3c0e90600090a250565b6065546001600160a01b0316331461061f5760405162461bcd60e51b815260040161035b9061135d565b61043e610db1565b6065546000906001600160a01b031633146106545760405162461bcd60e51b815260040161035b9061135d565b6000805b609954811161069b576000818152609d6020526040902060018101541561069257600181015461068890846113a8565b6000600183015592505b50600101610658565b506097546106b3906001600160a01b03163383610e2c565b60405181907f58eb5dbbf019b25979cf9b1f2b727523a9b05c3a44820f08bed539287844cefd90600090a2905090565b6001600160a01b0382166107395760405162461bcd60e51b815260206004820152601c60248201527f4c53533a2043616e6e6f7420737562207a65726f206164647265737300000000604482015260640161035b565b6001600160a01b0382166000908152609b60205260409020541561079f5760405162461bcd60e51b815260206004820152601f60248201527f4c53533a20416c726561647920737562736372696265642c20657874656e6400604482015260640161035b565b6001609960008282546107b291906113a8565b90915550506099546001600160a01b0383166000908152609b60209081526040808320849055928252609d90529081206098549091906107f290846113c0565b60975490915061080d906001600160a01b0316333084610f5d565b61081783436113a8565b82556001820181905560405183906001600160a01b038616907f1e05df24f73db39faa0c2d5d26727d08632debce09833123a69214ba943e07c290600090a350505050565b600054610100900460ff166108775760005460ff161561087b565b303b155b6108de5760405162461bcd60e51b815260206004820152602e60248201527f496e697469616c697a61626c653a20636f6e747261637420697320616c72656160448201526d191e481a5b9a5d1a585b1a5e995960921b606482015260840161035b565b600054610100900460ff16158015610900576000805461ffff19166101011790555b61090861109b565b61091183610440565b61091a82610331565b61092384610523565b6000609955801561093a576000805461ff00191690555b50505050565b609a546001600160a01b0316331461099a5760405162461bcd60e51b815260206004820152601b60248201527f4c53533a204f6e6c79204f7261636c6520436f6e74726f6c6c65720000000000604482015260640161035b565b8151815181146109ec5760405162461bcd60e51b815260206004820152601860248201527f4c53533a2041727261797320646f206e6f74206d617463680000000000000000604482015260640161035b565b60005b8181101561093a576000848281518110610a0b57610a0b6113df565b602002602001015190506000848381518110610a2957610a296113df565b6020908102919091018101516001600160a01b0384166000818152609c9093526040808420805460ff191660ff851690811790915590519294509290917f2cb19e7f0f90040467ae898aaf5424bccd8750a9c61c23c36c277397b28187409190a350506001016109ef565b6001600160a01b0382166000908152609b60209081526040808320548352609d90915290208054610afd5760405162461bcd60e51b81526020600482015260136024820152721314d4ce88139bdd081cdd589cd8dc9a589959606a1b604482015260640161035b565b8054610b0983436113a8565b1015610b575760405162461bcd60e51b815260206004820152601d60248201527f4c53533a20457874656e73696f6e20706572696f6420636f7665726564000000604482015260640161035b565b600060985483610b6791906113c0565b609754909150610b82906001600160a01b0316333084610f5d565b610b8c83436113a8565b8255600182018054829190600090610ba59084906113a8565b909155505060405183906001600160a01b038616907fdf383c361ca99a1a489f2e5bc53f4e98515c2dee680062911ebf80d51fbfe14290600090a350505050565b336000908152609b60209081526040808320548352609d909152812054431115610c1257506000919050565b506001600160a01b03166000908152609c602052604090205460ff1690565b6065546001600160a01b03163314610c5b5760405162461bcd60e51b815260040161035b9061135d565b6001600160a01b038116610cc05760405162461bcd60e51b815260206004820152602660248201527f4f776e61626c653a206e6577206f776e657220697320746865207a65726f206160448201526564647265737360d01b606482015260840161035b565b610cc981610d5f565b50565b60335460ff16610d155760405162461bcd60e51b815260206004820152601460248201527314185d5cd8589b194e881b9bdd081c185d5cd95960621b604482015260640161035b565b6033805460ff191690557f5db9ee0a495bf2e6ff9c91a7834c1ba4fdd244a5e8aa4e537bd38aeae4b073aa335b6040516001600160a01b03909116815260200160405180910390a1565b606580546001600160a01b038381166001600160a01b0319831681179093556040519116919082907f8be0079c531659141344cd1fd0a4f28419497f9722a3daafe3b4186f6b6457e090600090a35050565b60335460ff1615610df75760405162461bcd60e51b815260206004820152601060248201526f14185d5cd8589b194e881c185d5cd95960821b604482015260640161035b565b6033805460ff191660011790557f62e78cea01bee320cd4e420270b5ea74000d11b0c9f74754ebdbfc544b05a258610d423390565b604080516001600160a01b038481166024830152604480830185905283518084039091018152606490920183526020820180516001600160e01b031663a9059cbb60e01b1790529151600092839290871691610e8891906113f5565b6000604051808303816000865af19150503d8060008114610ec5576040519150601f19603f3d011682016040523d82523d6000602084013e610eca565b606091505b5091509150818015610ef4575080511580610ef4575080806020019051810190610ef49190611430565b610f565760405162461bcd60e51b815260206004820152602d60248201527f5472616e7366657248656c7065723a3a736166655472616e736665723a20747260448201526c185b9cd9995c8819985a5b1959609a1b606482015260840161035b565b5050505050565b604080516001600160a01b0385811660248301528481166044830152606480830185905283518084039091018152608490920183526020820180516001600160e01b03166323b872dd60e01b1790529151600092839290881691610fc191906113f5565b6000604051808303816000865af19150503d8060008114610ffe576040519150601f19603f3d011682016040523d82523d6000602084013e611003565b606091505b509150915081801561102d57508051158061102d57508080602001905181019061102d9190611430565b6110935760405162461bcd60e51b815260206004820152603160248201527f5472616e7366657248656c7065723a3a7472616e7366657246726f6d3a207472604482015270185b9cd9995c919c9bdb4819985a5b1959607a1b606482015260840161035b565b505050505050565b600054610100900460ff166110c25760405162461bcd60e51b815260040161035b90611452565b61043e600054610100900460ff166110ec5760405162461bcd60e51b815260040161035b90611452565b61043e33610d5f565b6001600160a01b0381168114610cc957600080fd5b60006020828403121561111c57600080fd5b8135611127816110f5565b9392505050565b60006020828403121561114057600080fd5b5035919050565b6000806040838503121561115a57600080fd5b8235611165816110f5565b946020939093013593505050565b60008060006060848603121561118857600080fd5b8335611193816110f5565b92506020840135915060408401356111aa816110f5565b809150509250925092565b634e487b7160e01b600052604160045260246000fd5b604051601f8201601f1916810167ffffffffffffffff811182821017156111f4576111f46111b5565b604052919050565b600067ffffffffffffffff821115611216576112166111b5565b5060051b60200190565b600082601f83011261123157600080fd5b81356020611246611241836111fc565b6111cb565b82815260059290921b8401810191818101908684111561126557600080fd5b8286015b8481101561129057803560ff811681146112835760008081fd5b8352918301918301611269565b509695505050505050565b600080604083850312156112ae57600080fd5b823567ffffffffffffffff808211156112c657600080fd5b818501915085601f8301126112da57600080fd5b813560206112ea611241836111fc565b82815260059290921b8401810191818101908984111561130957600080fd5b948201945b83861015611330578535611321816110f5565b8252948201949082019061130e565b9650508601359250508082111561134657600080fd5b5061135385828601611220565b9150509250929050565b6020808252818101527f4f776e61626c653a2063616c6c6572206973206e6f7420746865206f776e6572604082015260600190565b634e487b7160e01b600052601160045260246000fd5b600082198211156113bb576113bb611392565b500190565b60008160001904831182151516156113da576113da611392565b500290565b634e487b7160e01b600052603260045260246000fd5b6000825160005b8181101561141657602081860181015185830152016113fc565b81811115611425576000828501525b509190910192915050565b60006020828403121561144257600080fd5b8151801515811461112757600080fd5b6020808252602b908201527f496e697469616c697a61626c653a20636f6e7472616374206973206e6f74206960408201526a6e697469616c697a696e6760a81b60608201526080019056fea26469706673582212205bbfe9c88efc7b1a0f867ee422dd251070ab2716e9a74eed62f2bad2303eb84664736f6c637828302e382e31322d646576656c6f702e323032322e322e31362b636f6d6d69742e66303064373330380059",
    "linkReferences": {}
  }
}