{
  "abi": [
    {
      "anonymous": false,
      "inputs": [
        {
          "indexed": true,
          "internalType": "contract ILssOracleController",
          "name": "_oracleController",
          "type": "address"
        }
      ],
      "name": "NewOracleController",
      "type": "event"
    },
    {
      "anonymous": false,
      "inputs": [
        {
          "indexed": true,
          "internalType": "address",
          "name": "_updatedAddress",
          "type": "address"
        },
        {
          "indexed": true,
          "internalType": "uint8",
          "name": "_updatedScore",
          "type": "uint8"
        }
      ],
      "name": "NewRiskScore",
      "type": "event"
    },
    {
      "anonymous": false,
      "inputs": [
        {
          "indexed": true,
          "internalType": "address",
          "name": "previousOwner",
          "type": "address"
        },
        {
          "indexed": true,
          "internalType": "address",
          "name": "newOwner",
          "type": "address"
        }
      ],
      "name": "OwnershipTransferred",
      "type": "event"
    },
    {
      "anonymous": false,
      "inputs": [
        {
          "indexed": false,
          "internalType": "address",
          "name": "account",
          "type": "address"
        }
      ],
      "name": "Paused",
      "type": "event"
    },
    {
      "anonymous": false,
      "inputs": [
        {
          "indexed": false,
          "internalType": "address",
          "name": "account",
          "type": "address"
        }
      ],
      "name": "Unpaused",
      "type": "event"
    },
    {
      "inputs": [
        {
          "internalType": "address",
          "name": "_address",
          "type": "address"
        }
      ],
      "name": "getRiskScore",
      "outputs": [
        {
          "internalType": "uint8",
          "name": "",
          "type": "uint8"
        }
      ],
      "stateMutability": "view",
      "type": "function"
    },
    {
      "inputs": [
        {
          "internalType": "contract ILssOracleController",
          "name": "_controller",
          "type": "address"
        }
      ],
      "name": "initialize",
      "outputs": [],
      "stateMutability": "nonpayable",
      "type": "function"
    },
    {
      "inputs": [],
      "name": "lssOracleController",
      "outputs": [
        {
          "internalType": "contract ILssOracleController",
          "name": "",
          "type": "address"
        }
      ],
      "stateMutability": "view",
      "type": "function"
    },
    {
      "inputs": [],
      "name": "owner",
      "outputs": [
        {
          "internalType": "address",
          "name": "",
          "type": "address"
        }
      ],
      "stateMutability": "view",
      "type": "function"
    },
    {
      "inputs": [],
      "name": "pause",
      "outputs": [],
      "stateMutability": "nonpayable",
      "type": "function"
    },
    {
      "inputs": [],
      "name": "paused",
      "outputs": [
        {
          "internalType": "bool",
          "name": "",
          "type": "bool"
        }
      ],
      "stateMutability": "view",
      "type": "function"
    },
    {
      "inputs": [],
      "name": "renounceOwnership",
      "outputs": [],
      "stateMutability": "nonpayable",
      "type": "function"
    },
    {
      "inputs": [
        {
          "internalType": "address",
          "name": "",
          "type": "address"
        }
      ],
      "name": "riskScores",
      "outputs": [
        {
          "internalType": "uint8",
          "name": "",
          "type": "uint8"
        }
      ],
      "stateMutability": "view",
      "type": "function"
    },
    {
      "inputs": [
        {
          "internalType": "contract ILssOracleController",
          "name": "_controller",
          "type": "address"
        }
      ],
      "name": "setOracleController",
      "outputs": [],
      "stateMutability": "nonpayable",
      "type": "function"
    },
    {
      "inputs": [
        {
          "internalType": "address[]",
          "name": "_addresses",
          "type": "address[]"
        },
        {
          "internalType": "uint8[]",
          "name": "_scores",
          "type": "uint8[]"
        }
      ],
      "name": "setRiskScores",
      "outputs": [],
      "stateMutability": "nonpayable",
      "type": "function"
    },
    {
      "inputs": [
        {
          "internalType": "address",
          "name": "newOwner",
          "type": "address"
        }
      ],
      "name": "transferOwnership",
      "outputs": [],
      "stateMutability": "nonpayable",
      "type": "function"
    },
    {
      "inputs": [],
      "name": "unpause",
      "outputs": [],
      "stateMutability": "nonpayable",
      "type": "function"
    }
  ],
  "bytecode": {
    "object": "0x608060405234801561001057600080fd5b50610ae6806100206000396000f3fe608060405234801561001057600080fd5b50600436106100b45760003560e01c8063c4d66de811610071578063c4d66de814610148578063c703a6151461015b578063ca305ee01461016e578063dc08706d14610181578063e2e5fa7314610194578063f2fde38b146101a757600080fd5b80633f4ba83a146100b95780635c975abb146100c35780635e5b8752146100de578063715018a6146101135780638456cb591461011b5780638da5cb5b14610123575b600080fd5b6100c16101ba565b005b60335460ff1660405190151581526020015b60405180910390f35b6101016100ec366004610806565b60986020526000908152604090205460ff1681565b60405160ff90911681526020016100d5565b6100c16101f7565b6100c161022b565b6065546001600160a01b03165b6040516001600160a01b0390911681526020016100d5565b6100c1610156366004610806565b61025d565b6100c1610169366004610806565b610328565b6100c161017c366004610910565b6103fa565b61010161018f366004610806565b610504565b609754610130906001600160a01b031681565b6100c16101b5366004610806565b61059c565b6065546001600160a01b031633146101ed5760405162461bcd60e51b81526004016101e4906109d2565b60405180910390fd5b6101f5610637565b565b6065546001600160a01b031633146102215760405162461bcd60e51b81526004016101e4906109d2565b6101f560006106ca565b6065546001600160a01b031633146102555760405162461bcd60e51b81526004016101e4906109d2565b6101f561071c565b600054610100900460ff166102785760005460ff161561027c565b303b155b6102df5760405162461bcd60e51b815260206004820152602e60248201527f496e697469616c697a61626c653a20636f6e747261637420697320616c72656160448201526d191e481a5b9a5d1a585b1a5e995960921b60648201526084016101e4565b600054610100900460ff16158015610301576000805461ffff19166101011790555b610309610797565b61031282610328565b8015610324576000805461ff00191690555b5050565b6065546001600160a01b031633146103525760405162461bcd60e51b81526004016101e4906109d2565b6097546001600160a01b03828116911614156103b05760405162461bcd60e51b815260206004820152601c60248201527f4c53533a2043616e6e6f74207365742073616d6520616464726573730000000060448201526064016101e4565b609780546001600160a01b0319166001600160a01b0383169081179091556040517f6ed8861cd8766e9f03b6284238f73be29df7272b2e78ab7a844d5a245b38a4bd90600090a250565b6097546001600160a01b031633146104545760405162461bcd60e51b815260206004820152601b60248201527f4c53533a204f6e6c79204f7261636c6520436f6e74726f6c6c6572000000000060448201526064016101e4565b815160005b818110156104fe57600084828151811061047557610475610a07565b60200260200101519050600084838151811061049357610493610a07565b6020908102919091018101516001600160a01b038416600081815260989093526040808420805460ff191660ff851690811790915590519294509290917f2cb19e7f0f90040467ae898aaf5424bccd8750a9c61c23c36c277397b28187409190a35050600101610459565b50505050565b60975460405163453e01ad60e01b81523360048201526000916001600160a01b03169063453e01ad90602401602060405180830381865afa15801561054d573d6000803e3d6000fd5b505050506040513d601f19601f820116820180604052508101906105719190610a1d565b61057d57506000919050565b506001600160a01b031660009081526098602052604090205460ff1690565b6065546001600160a01b031633146105c65760405162461bcd60e51b81526004016101e4906109d2565b6001600160a01b03811661062b5760405162461bcd60e51b815260206004820152602660248201527f4f776e61626c653a206e6577206f776e657220697320746865207a65726f206160448201526564647265737360d01b60648201526084016101e4565b610634816106ca565b50565b60335460ff166106805760405162461bcd60e51b815260206004820152601460248201527314185d5cd8589b194e881b9bdd081c185d5cd95960621b60448201526064016101e4565b6033805460ff191690557f5db9ee0a495bf2e6ff9c91a7834c1ba4fdd244a5e8aa4e537bd38aeae4b073aa335b6040516001600160a01b03909116815260200160405180910390a1565b606580546001600160a01b038381166001600160a01b0319831681179093556040519116919082907f8be0079c531659141344cd1fd0a4f28419497f9722a3daafe3b4186f6b6457e090600090a35050565b60335460ff16156107625760405162461bcd60e51b815260206004820152601060248201526f14185d5cd8589b194e881c185d5cd95960821b60448201526064016101e4565b6033805460ff191660011790557f62e78cea01bee320cd4e420270b5ea74000d11b0c9f74754ebdbfc544b05a2586106ad3390565b600054610100900460ff166107be5760405162461bcd60e51b81526004016101e490610a3f565b6101f5600054610100900460ff166107e85760405162461bcd60e51b81526004016101e490610a3f565b6101f5336106ca565b6001600160a01b038116811461063457600080fd5b60006020828403121561081857600080fd5b8135610823816107f1565b9392505050565b634e487b7160e01b600052604160045260246000fd5b604051601f8201601f1916810167ffffffffffffffff811182821017156108695761086961082a565b604052919050565b600067ffffffffffffffff82111561088b5761088b61082a565b5060051b60200190565b600082601f8301126108a657600080fd5b813560206108bb6108b683610871565b610840565b82815260059290921b840181019181810190868411156108da57600080fd5b8286015b8481101561090557803560ff811681146108f85760008081fd5b83529183019183016108de565b509695505050505050565b6000806040838503121561092357600080fd5b823567ffffffffffffffff8082111561093b57600080fd5b818501915085601f83011261094f57600080fd5b8135602061095f6108b683610871565b82815260059290921b8401810191818101908984111561097e57600080fd5b948201945b838610156109a5578535610996816107f1565b82529482019490820190610983565b965050860135925050808211156109bb57600080fd5b506109c885828601610895565b9150509250929050565b6020808252818101527f4f776e61626c653a2063616c6c6572206973206e6f7420746865206f776e6572604082015260600190565b634e487b7160e01b600052603260045260246000fd5b600060208284031215610a2f57600080fd5b8151801515811461082357600080fd5b6020808252602b908201527f496e697469616c697a61626c653a20636f6e7472616374206973206e6f74206960408201526a6e697469616c697a696e6760a81b60608201526080019056fea2646970667358221220f46ec2e5bc288df7b8f1b6efe116de512a049c36a0fd3f664dcdc2f7a68b7a4f64736f6c637828302e382e31322d646576656c6f702e323032322e322e31362b636f6d6d69742e66303064373330380059",
    "linkReferences": {}
  }
}