{
  "abi": [
    {
      "anonymous": false,
      "inputs": [
        {
          "indexed": true,
          "internalType": "address",
          "name": "_oracle",
          "type": "address"
        }
      ],
      "name": "NewOracle",
      "type": "event"
    },
    {
      "anonymous": false,
      "inputs": [
        {
          "indexed": true,
          "internalType": "address",
          "name": "_oracle",
          "type": "address"
        }
      ],
      "name": "NewOracleRemoved",
      "type": "event"
    },
    {
      "anonymous": false,
      "inputs": [
        {
          "indexed": true,
          "internalType": "address",
          "name": "_updatedAddress",
          "type": "address"
        },
        {
          "indexed": true,
          "internalType": "uint8",
          "name": "_updatedScore",
          "type": "uint8"
        }
      ],
      "name": "NewRiskScore",
      "type": "event"
    },
    {
      "anonymous": false,
      "inputs": [
        {
          "indexed": true,
          "internalType": "contract ILssSecurityOracle",
          "name": "_securityOracle",
          "type": "address"
        }
      ],
      "name": "NewSecurityOracle",
      "type": "event"
    },
    {
      "anonymous": false,
      "inputs": [
        {
          "indexed": true,
          "internalType": "address",
          "name": "_address",
          "type": "address"
        },
        {
          "indexed": true,
          "internalType": "uint256",
          "name": "_blocks",
          "type": "uint256"
        }
      ],
      "name": "NewSubscription",
      "type": "event"
    },
    {
      "anonymous": false,
      "inputs": [
        {
          "indexed": true,
          "internalType": "address",
          "name": "_address",
          "type": "address"
        },
        {
          "indexed": true,
          "internalType": "uint256",
          "name": "_blocks",
          "type": "uint256"
        }
      ],
      "name": "NewSubscriptionExtension",
      "type": "event"
    },
    {
      "anonymous": false,
      "inputs": [
        {
          "indexed": true,
          "internalType": "uint256",
          "name": "_subFee",
          "type": "uint256"
        }
      ],
      "name": "NewSubscriptionFee",
      "type": "event"
    },
    {
      "anonymous": false,
      "inputs": [
        {
          "indexed": true,
          "internalType": "contract IERC20",
          "name": "_subToken",
          "type": "address"
        }
      ],
      "name": "NewSubscriptionToken",
      "type": "event"
    },
    {
      "anonymous": false,
      "inputs": [
        {
          "indexed": true,
          "internalType": "uint256",
          "name": "_withdrawPool",
          "type": "uint256"
        }
      ],
      "name": "NewWithdrawal",
      "type": "event"
    },
    {
      "anonymous": false,
      "inputs": [
        {
          "indexed": true,
          "internalType": "address",
          "name": "previousOwner",
          "type": "address"
        },
        {
          "indexed": true,
          "internalType": "address",
          "name": "newOwner",
          "type": "address"
        }
      ],
      "name": "OwnershipTransferred",
      "type": "event"
    },
    {
      "anonymous": false,
      "inputs": [
        {
          "indexed": false,
          "internalType": "address",
          "name": "account",
          "type": "address"
        }
      ],
      "name": "Paused",
      "type": "event"
    },
    {
      "anonymous": false,
      "inputs": [
        {
          "indexed": true,
          "internalType": "bytes32",
          "name": "role",
          "type": "bytes32"
        },
        {
          "indexed": true,
          "internalType": "bytes32",
          "name": "previousAdminRole",
          "type": "bytes32"
        },
        {
          "indexed": true,
          "internalType": "bytes32",
          "name": "newAdminRole",
          "type": "bytes32"
        }
      ],
      "name": "RoleAdminChanged",
      "type": "event"
    },
    {
      "anonymous": false,
      "inputs": [
        {
          "indexed": true,
          "internalType": "bytes32",
          "name": "role",
          "type": "bytes32"
        },
        {
          "indexed": true,
          "internalType": "address",
          "name": "account",
          "type": "address"
        },
        {
          "indexed": true,
          "internalType": "address",
          "name": "sender",
          "type": "address"
        }
      ],
      "name": "RoleGranted",
      "type": "event"
    },
    {
      "anonymous": false,
      "inputs": [
        {
          "indexed": true,
          "internalType": "bytes32",
          "name": "role",
          "type": "bytes32"
        },
        {
          "indexed": true,
          "internalType": "address",
          "name": "account",
          "type": "address"
        },
        {
          "indexed": true,
          "internalType": "address",
          "name": "sender",
          "type": "address"
        }
      ],
      "name": "RoleRevoked",
      "type": "event"
    },
    {
      "anonymous": false,
      "inputs": [
        {
          "indexed": false,
          "internalType": "address",
          "name": "account",
          "type": "address"
        }
      ],
      "name": "Unpaused",
      "type": "event"
    },
    {
      "inputs": [],
      "name": "DEFAULT_ADMIN_ROLE",
      "outputs": [
        {
          "internalType": "bytes32",
          "name": "",
          "type": "bytes32"
        }
      ],
      "stateMutability": "view",
      "type": "function"
    },
    {
      "inputs": [],
      "name": "ORACLE",
      "outputs": [
        {
          "internalType": "bytes32",
          "name": "",
          "type": "bytes32"
        }
      ],
      "stateMutability": "view",
      "type": "function"
    },
    {
      "inputs": [
        {
          "internalType": "address",
          "name": "_oracle",
          "type": "address"
        }
      ],
      "name": "addOracle",
      "outputs": [],
      "stateMutability": "nonpayable",
      "type": "function"
    },
    {
      "inputs": [
        {
          "internalType": "address",
          "name": "_address",
          "type": "address"
        },
        {
          "internalType": "uint256",
          "name": "_blocks",
          "type": "uint256"
        }
      ],
      "name": "extendSubscription",
      "outputs": [],
      "stateMutability": "nonpayable",
      "type": "function"
    },
    {
      "inputs": [
        {
          "internalType": "address",
          "name": "_address",
          "type": "address"
        }
      ],
      "name": "getIsSubscribed",
      "outputs": [
        {
          "internalType": "bool",
          "name": "",
          "type": "bool"
        }
      ],
      "stateMutability": "view",
      "type": "function"
    },
    {
      "inputs": [
        {
          "internalType": "address",
          "name": "_address",
          "type": "address"
        }
      ],
      "name": "getRiskScore",
      "outputs": [
        {
          "internalType": "uint8",
          "name": "",
          "type": "uint8"
        }
      ],
      "stateMutability": "view",
      "type": "function"
    },
    {
      "inputs": [
        {
          "internalType": "bytes32",
          "name": "role",
          "type": "bytes32"
        }
      ],
      "name": "getRoleAdmin",
      "outputs": [
        {
          "internalType": "bytes32",
          "name": "",
          "type": "bytes32"
        }
      ],
      "stateMutability": "view",
      "type": "function"
    },
    {
      "inputs": [
        {
          "internalType": "bytes32",
          "name": "role",
          "type": "bytes32"
        },
        {
          "internalType": "address",
          "name": "account",
          "type": "address"
        }
      ],
      "name": "grantRole",
      "outputs": [],
      "stateMutability": "nonpayable",
      "type": "function"
    },
    {
      "inputs": [
        {
          "internalType": "bytes32",
          "name": "role",
          "type": "bytes32"
        },
        {
          "internalType": "address",
          "name": "account",
          "type": "address"
        }
      ],
      "name": "hasRole",
      "outputs": [
        {
          "internalType": "bool",
          "name": "",
          "type": "bool"
        }
      ],
      "stateMutability": "view",
      "type": "function"
    },
    {
      "inputs": [
        {
          "internalType": "address",
          "name": "_oracle",
          "type": "address"
        },
        {
          "internalType": "uint256",
          "name": "_subsricption",
          "type": "uint256"
        },
        {
          "internalType": "contract IERC20",
          "name": "_subToken",
          "type": "address"
        }
      ],
      "name": "initialize",
      "outputs": [],
      "stateMutability": "nonpayable",
      "type": "function"
    },
    {
      "inputs": [],
      "name": "oracle",
      "outputs": [
        {
          "internalType": "address",
          "name": "",
          "type": "address"
        }
      ],
      "stateMutability": "view",
      "type": "function"
    },
    {
      "inputs": [],
      "name": "owner",
      "outputs": [
        {
          "internalType": "address",
          "name": "",
          "type": "address"
        }
      ],
      "stateMutability": "view",
      "type": "function"
    },
    {
      "inputs": [],
      "name": "pause",
      "outputs": [],
      "stateMutability": "nonpayable",
      "type": "function"
    },
    {
      "inputs": [],
      "name": "paused",
      "outputs": [
        {
          "internalType": "bool",
          "name": "",
          "type": "bool"
        }
      ],
      "stateMutability": "view",
      "type": "function"
    },
    {
      "inputs": [
        {
          "internalType": "address",
          "name": "_oracle",
          "type": "address"
        }
      ],
      "name": "removeOracle",
      "outputs": [],
      "stateMutability": "nonpayable",
      "type": "function"
    },
    {
      "inputs": [],
      "name": "renounceOwnership",
      "outputs": [],
      "stateMutability": "nonpayable",
      "type": "function"
    },
    {
      "inputs": [
        {
          "internalType": "bytes32",
          "name": "role",
          "type": "bytes32"
        },
        {
          "internalType": "address",
          "name": "account",
          "type": "address"
        }
      ],
      "name": "renounceRole",
      "outputs": [],
      "stateMutability": "nonpayable",
      "type": "function"
    },
    {
      "inputs": [
        {
          "internalType": "bytes32",
          "name": "role",
          "type": "bytes32"
        },
        {
          "internalType": "address",
          "name": "account",
          "type": "address"
        }
      ],
      "name": "revokeRole",
      "outputs": [],
      "stateMutability": "nonpayable",
      "type": "function"
    },
    {
      "inputs": [
        {
          "internalType": "address",
          "name": "",
          "type": "address"
        }
      ],
      "name": "riskScores",
      "outputs": [
        {
          "internalType": "uint8",
          "name": "",
          "type": "uint8"
        }
      ],
      "stateMutability": "view",
      "type": "function"
    },
    {
      "inputs": [
        {
          "internalType": "address[]",
          "name": "_addresses",
          "type": "address[]"
        },
        {
          "internalType": "uint8[]",
          "name": "_scores",
          "type": "uint8[]"
        }
      ],
      "name": "setRiskScores",
      "outputs": [],
      "stateMutability": "nonpayable",
      "type": "function"
    },
    {
      "inputs": [
        {
          "internalType": "uint256",
          "name": "_sub",
          "type": "uint256"
        }
      ],
      "name": "setSubscriptionFee",
      "outputs": [],
      "stateMutability": "nonpayable",
      "type": "function"
    },
    {
      "inputs": [
        {
          "internalType": "contract IERC20",
          "name": "_token",
          "type": "address"
        }
      ],
      "name": "setSubscriptionToken",
      "outputs": [],
      "stateMutability": "nonpayable",
      "type": "function"
    },
    {
      "inputs": [],
      "name": "subFee",
      "outputs": [
        {
          "internalType": "uint256",
          "name": "",
          "type": "uint256"
        }
      ],
      "stateMutability": "view",
      "type": "function"
    },
    {
      "inputs": [
        {
          "internalType": "address",
          "name": "",
          "type": "address"
        }
      ],
      "name": "subNo",
      "outputs": [
        {
          "internalType": "uint256",
          "name": "",
          "type": "uint256"
        }
      ],
      "stateMutability": "view",
      "type": "function"
    },
    {
      "inputs": [],
      "name": "subToken",
      "outputs": [
        {
          "internalType": "contract IERC20",
          "name": "",
          "type": "address"
        }
      ],
      "stateMutability": "view",
      "type": "function"
    },
    {
      "inputs": [
        {
          "internalType": "address",
          "name": "_address",
          "type": "address"
        },
        {
          "internalType": "uint256",
          "name": "_blocks",
          "type": "uint256"
        }
      ],
      "name": "subscribe",
      "outputs": [],
      "stateMutability": "nonpayable",
      "type": "function"
    },
    {
      "inputs": [
        {
          "internalType": "bytes4",
          "name": "interfaceId",
          "type": "bytes4"
        }
      ],
      "name": "supportsInterface",
      "outputs": [
        {
          "internalType": "bool",
          "name": "",
          "type": "bool"
        }
      ],
      "stateMutability": "view",
      "type": "function"
    },
    {
      "inputs": [],
      "name": "totalUniqueSubs",
      "outputs": [
        {
          "internalType": "uint256",
          "name": "",
          "type": "uint256"
        }
      ],
      "stateMutability": "view",
      "type": "function"
    },
    {
      "inputs": [
        {
          "internalType": "address",
          "name": "newOwner",
          "type": "address"
        }
      ],
      "name": "transferOwnership",
      "outputs": [],
      "stateMutability": "nonpayable",
      "type": "function"
    },
    {
      "inputs": [],
      "name": "unpause",
      "outputs": [],
      "stateMutability": "nonpayable",
      "type": "function"
    },
    {
      "inputs": [],
      "name": "withdrawTokens",
      "outputs": [
        {
          "internalType": "uint256",
          "name": "",
          "type": "uint256"
        }
      ],
      "stateMutability": "nonpayable",
      "type": "function"
    }
  ],
  "bytecode": {
    "object": "0x608060405234801561001057600080fd5b50611cc1806100206000396000f3fe608060405234801561001057600080fd5b50600436106101e55760003560e01c80637fb9268e1161010f578063ca305ee0116100a2578063df5dd1a511610071578063df5dd1a51461043c578063e9ffa9f41461044f578063f2fde38b14610462578063fdc85fc41461047557600080fd5b8063ca305ee0146103f0578063d2b5b72c14610403578063d547741f14610416578063dc08706d1461042957600080fd5b80638de69284116100de5780638de69284146103af57806391d14854146103c2578063a217fddf146103d5578063c350a1b5146103dd57600080fd5b80637fb9268e1461036e5780638456cb591461038e5780638d8f2adb146103965780638da5cb5b1461039e57600080fd5b80633f4ba83a116101875780635e5b8752116101565780635e5b8752146102f25780636ac8495614610328578063715018a61461033b5780637dc0d1d01461034357600080fd5b80633f4ba83a1461029c578063453e01ad146102a4578063587544c3146102de5780635c975abb146102e757600080fd5b80632ac893a0116101c35780632ac893a01461024c5780632f2ff15d1461026157806336568abe1461027457806338013f021461028757600080fd5b806301ffc9a7146101ea5780631fec649314610212578063248a9ca314610229575b600080fd5b6101fd6101f836600461177e565b610488565b60405190151581526020015b60405180910390f35b61021b60fc5481565b604051908152602001610209565b61021b6102373660046117a8565b600090815260c9602052604090206001015490565b61025f61025a3660046117d6565b6104bf565b005b61025f61026f3660046117f3565b61059a565b61025f6102823660046117f3565b6105c5565b61021b600080516020611c4683398151915281565b61025f610643565b6101fd6102b23660046117d6565b6001600160a01b0316600090815260ff6020908152604080832054835261010190915290205443111590565b61021b60fd5481565b60335460ff166101fd565b6103166103003660046117d6565b6101006020526000908152604090205460ff1681565b60405160ff9091168152602001610209565b61025f6103363660046117a8565b610677565b61025f610726565b60fe54610356906001600160a01b031681565b6040516001600160a01b039091168152602001610209565b61021b61037c3660046117d6565b60ff6020526000908152604090205481565b61025f61075a565b61021b61078c565b6065546001600160a01b0316610356565b61025f6103bd366004611823565b610849565b6101fd6103d03660046117f3565b6109c3565b61021b600081565b61025f6103eb36600461184f565b6109ee565b61025f6103fe366004611977565b610add565b61025f610411366004611823565b610c3c565b61025f6104243660046117f3565b610d8f565b6103166104373660046117d6565b610db5565b61025f61044a3660046117d6565b610e02565b60fb54610356906001600160a01b031681565b61025f6104703660046117d6565b610ee4565b61025f6104833660046117d6565b610f7f565b60006001600160e01b03198216637965db0b60e01b14806104b957506301ffc9a760e01b6001600160e01b03198316145b92915050565b6065546001600160a01b031633146104f25760405162461bcd60e51b81526004016104e990611a39565b60405180910390fd5b60fb546001600160a01b03828116911614156105505760405162461bcd60e51b815260206004820152601a60248201527f4c53533a2043616e6e6f74207365742073616d6520746f6b656e00000000000060448201526064016104e9565b60fb80546001600160a01b0319166001600160a01b0383169081179091556040517ff9ae0423c847ec8129e1d3a9ca8480341e82d7098f7dc4660f4fc0495a916d1a90600090a250565b600082815260c960205260409020600101546105b68133611052565b6105c083836110b6565b505050565b6001600160a01b03811633146106355760405162461bcd60e51b815260206004820152602f60248201527f416363657373436f6e74726f6c3a2063616e206f6e6c792072656e6f756e636560448201526e103937b632b9903337b91039b2b63360891b60648201526084016104e9565b61063f828261113c565b5050565b6065546001600160a01b0316331461066d5760405162461bcd60e51b81526004016104e990611a39565b6106756111a3565b565b6065546001600160a01b031633146106a15760405162461bcd60e51b81526004016104e990611a39565b8060fc5414156106f35760405162461bcd60e51b815260206004820152601b60248201527f4c53533a2043616e6e6f74207365742073616d6520616d6f756e74000000000060448201526064016104e9565b60fc81905560405181907f85d4a02d5fc7d0c65a3057977b8c9ec75d25c5aed9a7ee054abe838bd4145e1b90600090a250565b6065546001600160a01b031633146107505760405162461bcd60e51b81526004016104e990611a39565b6106756000611236565b6065546001600160a01b031633146107845760405162461bcd60e51b81526004016104e990611a39565b610675611288565b6065546000906001600160a01b031633146107b95760405162461bcd60e51b81526004016104e990611a39565b6000805b60fd548111610801576000818152610101602052604090206001810154156107f85760018101546107ee9084611a84565b6000600183015592505b506001016107bd565b5060fb54610819906001600160a01b03163383611303565b60405181907f58eb5dbbf019b25979cf9b1f2b727523a9b05c3a44820f08bed539287844cefd90600090a2905090565b6001600160a01b03821661089f5760405162461bcd60e51b815260206004820152601c60248201527f4c53533a2043616e6e6f7420737562207a65726f20616464726573730000000060448201526064016104e9565b6001600160a01b038216600090815260ff6020526040902054156109055760405162461bcd60e51b815260206004820152601f60248201527f4c53533a20416c726561647920737562736372696265642c20657874656e640060448201526064016104e9565b600160fd60008282546109189190611a84565b909155505060fd546001600160a01b038316600090815260ff60209081526040808320849055928252610101905290812060fc549091906109599084611a9c565b60fb54909150610974906001600160a01b0316333084611434565b61097e8343611a84565b82556001820181905560405183906001600160a01b038616907f1e05df24f73db39faa0c2d5d26727d08632debce09833123a69214ba943e07c290600090a350505050565b600091825260c9602090815260408084206001600160a01b0393909316845291905290205460ff1690565b600054610100900460ff16610a095760005460ff1615610a0d565b303b155b610a705760405162461bcd60e51b815260206004820152602e60248201527f496e697469616c697a61626c653a20636f6e747261637420697320616c72656160448201526d191e481a5b9a5d1a585b1a5e995960921b60648201526084016104e9565b600054610100900460ff16158015610a92576000805461ffff19166101011790555b610a9a611572565b610aa56000336115a1565b610aae83610677565b610ab7826104bf565b610ac084610e02565b600060fd558015610ad7576000805461ff00191690555b50505050565b610af5600080516020611c46833981519152336109c3565b610b415760405162461bcd60e51b815260206004820152601b60248201527f4c53533a204f6e6c79204f7261636c6520436f6e74726f6c6c6572000000000060448201526064016104e9565b815181518114610b935760405162461bcd60e51b815260206004820152601860248201527f4c53533a2041727261797320646f206e6f74206d61746368000000000000000060448201526064016104e9565b60005b81811015610ad7576000848281518110610bb257610bb2611abb565b602002602001015190506000848381518110610bd057610bd0611abb565b6020908102919091018101516001600160a01b03841660008181526101009093526040808420805460ff191660ff851690811790915590519294509290917f2cb19e7f0f90040467ae898aaf5424bccd8750a9c61c23c36c277397b28187409190a35050600101610b96565b6001600160a01b038216600090815260ff6020908152604080832054835261010190915290208054610ca65760405162461bcd60e51b81526020600482015260136024820152721314d4ce88139bdd081cdd589cd8dc9a589959606a1b60448201526064016104e9565b8054610cb28343611a84565b1015610d005760405162461bcd60e51b815260206004820152601d60248201527f4c53533a20457874656e73696f6e20706572696f6420636f766572656400000060448201526064016104e9565b600060fc5483610d109190611a9c565b60fb54909150610d2b906001600160a01b0316333084611434565b610d358343611a84565b8255600182018054829190600090610d4e908490611a84565b909155505060405183906001600160a01b038616907fdf383c361ca99a1a489f2e5bc53f4e98515c2dee680062911ebf80d51fbfe14290600090a350505050565b600082815260c96020526040902060010154610dab8133611052565b6105c0838361113c565b33600090815260ff60209081526040808320548352610101909152812054431115610de257506000919050565b506001600160a01b03166000908152610100602052604090205460ff1690565b6065546001600160a01b03163314610e2c5760405162461bcd60e51b81526004016104e990611a39565b610e44600080516020611c46833981519152826109c3565b15610e915760405162461bcd60e51b815260206004820152601c60248201527f4c53533a2043616e6e6f74207365742073616d6520616464726573730000000060448201526064016104e9565b610ea9600080516020611c468339815191528261059a565b60fe546040516001600160a01b03909116907fb3eacd0e351fafdfefdec84e1cd19679b38dbcd63ea7c2c24da17fd2bc3b3c0e90600090a250565b6065546001600160a01b03163314610f0e5760405162461bcd60e51b81526004016104e990611a39565b6001600160a01b038116610f735760405162461bcd60e51b815260206004820152602660248201527f4f776e61626c653a206e6577206f776e657220697320746865207a65726f206160448201526564647265737360d01b60648201526084016104e9565b610f7c81611236565b50565b6065546001600160a01b03163314610fa95760405162461bcd60e51b81526004016104e990611a39565b610fc1600080516020611c46833981519152826109c3565b610fff5760405162461bcd60e51b815260206004820152600f60248201526e4c53533a204e6f74204f7261636c6560881b60448201526064016104e9565b611017600080516020611c4683398151915282610d8f565b60fe546040516001600160a01b03909116907f2e597d98c9fb0399bb555c9ff83c41974b1ea95a12d1b9294b48da6e5faa28f890600090a250565b61105c82826109c3565b61063f57611074816001600160a01b031660146115ab565b61107f8360206115ab565b604051602001611090929190611afd565b60408051601f198184030181529082905262461bcd60e51b82526104e991600401611b72565b6110c082826109c3565b61063f57600082815260c9602090815260408083206001600160a01b03851684529091529020805460ff191660011790556110f83390565b6001600160a01b0316816001600160a01b0316837f2f8788117e7eff1d82e926ec794901d17c78024a50270940304540a733656f0d60405160405180910390a45050565b61114682826109c3565b1561063f57600082815260c9602090815260408083206001600160a01b0385168085529252808320805460ff1916905551339285917ff6391f5c32d9c69d2a47ea670b442974b53935d1edc7fd64eb21e047a839171b9190a45050565b60335460ff166111ec5760405162461bcd60e51b815260206004820152601460248201527314185d5cd8589b194e881b9bdd081c185d5cd95960621b60448201526064016104e9565b6033805460ff191690557f5db9ee0a495bf2e6ff9c91a7834c1ba4fdd244a5e8aa4e537bd38aeae4b073aa335b6040516001600160a01b03909116815260200160405180910390a1565b606580546001600160a01b038381166001600160a01b0319831681179093556040519116919082907f8be0079c531659141344cd1fd0a4f28419497f9722a3daafe3b4186f6b6457e090600090a35050565b60335460ff16156112ce5760405162461bcd60e51b815260206004820152601060248201526f14185d5cd8589b194e881c185d5cd95960821b60448201526064016104e9565b6033805460ff191660011790557f62e78cea01bee320cd4e420270b5ea74000d11b0c9f74754ebdbfc544b05a2586112193390565b604080516001600160a01b038481166024830152604480830185905283518084039091018152606490920183526020820180516001600160e01b031663a9059cbb60e01b179052915160009283929087169161135f9190611ba5565b6000604051808303816000865af19150503d806000811461139c576040519150601f19603f3d011682016040523d82523d6000602084013e6113a1565b606091505b50915091508180156113cb5750805115806113cb5750808060200190518101906113cb9190611bc1565b61142d5760405162461bcd60e51b815260206004820152602d60248201527f5472616e7366657248656c7065723a3a736166655472616e736665723a20747260448201526c185b9cd9995c8819985a5b1959609a1b60648201526084016104e9565b5050505050565b604080516001600160a01b0385811660248301528481166044830152606480830185905283518084039091018152608490920183526020820180516001600160e01b03166323b872dd60e01b17905291516000928392908816916114989190611ba5565b6000604051808303816000865af19150503d80600081146114d5576040519150601f19603f3d011682016040523d82523d6000602084013e6114da565b606091505b50915091508180156115045750805115806115045750808060200190518101906115049190611bc1565b61156a5760405162461bcd60e51b815260206004820152603160248201527f5472616e7366657248656c7065723a3a7472616e7366657246726f6d3a207472604482015270185b9cd9995c919c9bdb4819985a5b1959607a1b60648201526084016104e9565b505050505050565b600054610100900460ff166115995760405162461bcd60e51b81526004016104e990611be3565b61067561174e565b61063f82826110b6565b606060006115ba836002611a9c565b6115c5906002611a84565b67ffffffffffffffff8111156115dd576115dd611891565b6040519080825280601f01601f191660200182016040528015611607576020820181803683370190505b509050600360fc1b8160008151811061162257611622611abb565b60200101906001600160f81b031916908160001a905350600f60fb1b8160018151811061165157611651611abb565b60200101906001600160f81b031916908160001a9053506000611675846002611a9c565b611680906001611a84565b90505b60018111156116f8576f181899199a1a9b1b9c1cb0b131b232b360811b85600f16601081106116b4576116b4611abb565b1a60f81b8282815181106116ca576116ca611abb565b60200101906001600160f81b031916908160001a90535060049490941c936116f181611c2e565b9050611683565b5083156117475760405162461bcd60e51b815260206004820181905260248201527f537472696e67733a20686578206c656e67746820696e73756666696369656e7460448201526064016104e9565b9392505050565b600054610100900460ff166117755760405162461bcd60e51b81526004016104e990611be3565b61067533611236565b60006020828403121561179057600080fd5b81356001600160e01b03198116811461174757600080fd5b6000602082840312156117ba57600080fd5b5035919050565b6001600160a01b0381168114610f7c57600080fd5b6000602082840312156117e857600080fd5b8135611747816117c1565b6000806040838503121561180657600080fd5b823591506020830135611818816117c1565b809150509250929050565b6000806040838503121561183657600080fd5b8235611841816117c1565b946020939093013593505050565b60008060006060848603121561186457600080fd5b833561186f816117c1565b9250602084013591506040840135611886816117c1565b809150509250925092565b634e487b7160e01b600052604160045260246000fd5b604051601f8201601f1916810167ffffffffffffffff811182821017156118d0576118d0611891565b604052919050565b600067ffffffffffffffff8211156118f2576118f2611891565b5060051b60200190565b600082601f83011261190d57600080fd5b8135602061192261191d836118d8565b6118a7565b82815260059290921b8401810191818101908684111561194157600080fd5b8286015b8481101561196c57803560ff8116811461195f5760008081fd5b8352918301918301611945565b509695505050505050565b6000806040838503121561198a57600080fd5b823567ffffffffffffffff808211156119a257600080fd5b818501915085601f8301126119b657600080fd5b813560206119c661191d836118d8565b82815260059290921b840181019181810190898411156119e557600080fd5b948201945b83861015611a0c5785356119fd816117c1565b825294820194908201906119ea565b96505086013592505080821115611a2257600080fd5b50611a2f858286016118fc565b9150509250929050565b6020808252818101527f4f776e61626c653a2063616c6c6572206973206e6f7420746865206f776e6572604082015260600190565b634e487b7160e01b600052601160045260246000fd5b60008219821115611a9757611a97611a6e565b500190565b6000816000190483118215151615611ab657611ab6611a6e565b500290565b634e487b7160e01b600052603260045260246000fd5b60005b83811015611aec578181015183820152602001611ad4565b83811115610ad75750506000910152565b7f416363657373436f6e74726f6c3a206163636f756e7420000000000000000000815260008351611b35816017850160208801611ad1565b7001034b99036b4b9b9b4b733903937b6329607d1b6017918401918201528351611b66816028840160208801611ad1565b01602801949350505050565b6020815260008251806020840152611b91816040850160208701611ad1565b601f01601f19169190910160400192915050565b60008251611bb7818460208701611ad1565b9190910192915050565b600060208284031215611bd357600080fd5b8151801515811461174757600080fd5b6020808252602b908201527f496e697469616c697a61626c653a20636f6e7472616374206973206e6f74206960408201526a6e697469616c697a696e6760a81b606082015260800190565b600081611c3d57611c3d611a6e565b50600019019056fe352d05fe3946dbe49277552ba941e744d5a96d9c60bc1ba0ea5f1d3ae000f7c8a26469706673582212207c7b4ab02d46e8bbfebe393b5a5ea446ae3df6639ab2d9ef135b69774801e9a564736f6c637828302e382e31322d646576656c6f702e323032322e322e31362b636f6d6d69742e66303064373330380059",
    "linkReferences": {}
  }
}