{
  "abi": [
    {
      "anonymous": false,
      "inputs": [
        {
          "indexed": true,
          "internalType": "address",
          "name": "_oracle",
          "type": "address"
        }
      ],
      "name": "NewOracle",
      "type": "event"
    },
    {
      "anonymous": false,
      "inputs": [
        {
          "indexed": true,
          "internalType": "address",
          "name": "_updatedAddress",
          "type": "address"
        },
        {
          "indexed": true,
          "internalType": "uint8",
          "name": "_updatedScore",
          "type": "uint8"
        }
      ],
      "name": "NewRiskScore",
      "type": "event"
    },
    {
      "anonymous": false,
      "inputs": [
        {
          "indexed": true,
          "internalType": "contract ILssSecurityOracle",
          "name": "_securityOracle",
          "type": "address"
        }
      ],
      "name": "NewSecurityOracle",
      "type": "event"
    },
    {
      "anonymous": false,
      "inputs": [
        {
          "indexed": true,
          "internalType": "address",
          "name": "_address",
          "type": "address"
        },
        {
          "indexed": true,
          "internalType": "uint256",
          "name": "_blocks",
          "type": "uint256"
        }
      ],
      "name": "NewSubscription",
      "type": "event"
    },
    {
      "anonymous": false,
      "inputs": [
        {
          "indexed": true,
          "internalType": "address",
          "name": "_address",
          "type": "address"
        },
        {
          "indexed": true,
          "internalType": "uint256",
          "name": "_blocks",
          "type": "uint256"
        }
      ],
      "name": "NewSubscriptionExtension",
      "type": "event"
    },
    {
      "anonymous": false,
      "inputs": [
        {
          "indexed": true,
          "internalType": "uint256",
          "name": "_subFee",
          "type": "uint256"
        }
      ],
      "name": "NewSubscriptionFee",
      "type": "event"
    },
    {
      "anonymous": false,
      "inputs": [
        {
          "indexed": true,
          "internalType": "contract IERC20",
          "name": "_subToken",
          "type": "address"
        }
      ],
      "name": "NewSubscriptionToken",
      "type": "event"
    },
    {
      "anonymous": false,
      "inputs": [
        {
          "indexed": true,
          "internalType": "uint256",
          "name": "_withdrawPool",
          "type": "uint256"
        }
      ],
      "name": "NewWithdrawal",
      "type": "event"
    },
    {
      "anonymous": false,
      "inputs": [
        {
          "indexed": true,
          "internalType": "address",
          "name": "previousOwner",
          "type": "address"
        },
        {
          "indexed": true,
          "internalType": "address",
          "name": "newOwner",
          "type": "address"
        }
      ],
      "name": "OwnershipTransferred",
      "type": "event"
    },
    {
      "anonymous": false,
      "inputs": [
        {
          "indexed": false,
          "internalType": "address",
          "name": "account",
          "type": "address"
        }
      ],
      "name": "Paused",
      "type": "event"
    },
    {
      "anonymous": false,
      "inputs": [
        {
          "indexed": false,
          "internalType": "address",
          "name": "account",
          "type": "address"
        }
      ],
      "name": "Unpaused",
      "type": "event"
    },
    {
      "inputs": [
        {
          "internalType": "address",
          "name": "_address",
          "type": "address"
        },
        {
          "internalType": "uint256",
          "name": "_blocks",
          "type": "uint256"
        }
      ],
      "name": "extendSubscription",
      "outputs": [],
      "stateMutability": "nonpayable",
      "type": "function"
    },
    {
      "inputs": [
        {
          "internalType": "address",
          "name": "_address",
          "type": "address"
        }
      ],
      "name": "getIsSubscribed",
      "outputs": [
        {
          "internalType": "bool",
          "name": "",
          "type": "bool"
        }
      ],
      "stateMutability": "view",
      "type": "function"
    },
    {
      "inputs": [
        {
          "internalType": "address",
          "name": "_address",
          "type": "address"
        }
      ],
      "name": "getRiskScore",
      "outputs": [
        {
          "internalType": "uint8",
          "name": "",
          "type": "uint8"
        }
      ],
      "stateMutability": "view",
      "type": "function"
    },
    {
      "inputs": [
        {
          "internalType": "address",
          "name": "_oracle",
          "type": "address"
        },
        {
          "internalType": "uint256",
          "name": "_subsricption",
          "type": "uint256"
        },
        {
          "internalType": "contract IERC20",
          "name": "_subToken",
          "type": "address"
        }
      ],
      "name": "initialize",
      "outputs": [],
      "stateMutability": "nonpayable",
      "type": "function"
    },
    {
      "inputs": [],
      "name": "oracle",
      "outputs": [
        {
          "internalType": "address",
          "name": "",
          "type": "address"
        }
      ],
      "stateMutability": "view",
      "type": "function"
    },
    {
      "inputs": [],
      "name": "owner",
      "outputs": [
        {
          "internalType": "address",
          "name": "",
          "type": "address"
        }
      ],
      "stateMutability": "view",
      "type": "function"
    },
    {
      "inputs": [],
      "name": "pause",
      "outputs": [],
      "stateMutability": "nonpayable",
      "type": "function"
    },
    {
      "inputs": [],
      "name": "paused",
      "outputs": [
        {
          "internalType": "bool",
          "name": "",
          "type": "bool"
        }
      ],
      "stateMutability": "view",
      "type": "function"
    },
    {
      "inputs": [],
      "name": "renounceOwnership",
      "outputs": [],
      "stateMutability": "nonpayable",
      "type": "function"
    },
    {
      "inputs": [
        {
          "internalType": "address",
          "name": "",
          "type": "address"
        }
      ],
      "name": "riskScores",
      "outputs": [
        {
          "internalType": "uint8",
          "name": "",
          "type": "uint8"
        }
      ],
      "stateMutability": "view",
      "type": "function"
    },
    {
      "inputs": [
        {
          "internalType": "address",
          "name": "_oracle",
          "type": "address"
        }
      ],
      "name": "setOracle",
      "outputs": [],
      "stateMutability": "nonpayable",
      "type": "function"
    },
    {
      "inputs": [
        {
          "internalType": "address[]",
          "name": "_addresses",
          "type": "address[]"
        },
        {
          "internalType": "uint8[]",
          "name": "_scores",
          "type": "uint8[]"
        }
      ],
      "name": "setRiskScores",
      "outputs": [],
      "stateMutability": "nonpayable",
      "type": "function"
    },
    {
      "inputs": [
        {
          "internalType": "uint256",
          "name": "_sub",
          "type": "uint256"
        }
      ],
      "name": "setSubscriptionFee",
      "outputs": [],
      "stateMutability": "nonpayable",
      "type": "function"
    },
    {
      "inputs": [
        {
          "internalType": "contract IERC20",
          "name": "_token",
          "type": "address"
        }
      ],
      "name": "setSubscriptionToken",
      "outputs": [],
      "stateMutability": "nonpayable",
      "type": "function"
    },
    {
      "inputs": [],
      "name": "subFee",
      "outputs": [
        {
          "internalType": "uint256",
          "name": "",
          "type": "uint256"
        }
      ],
      "stateMutability": "view",
      "type": "function"
    },
    {
      "inputs": [
        {
          "internalType": "address",
          "name": "",
          "type": "address"
        }
      ],
      "name": "subNo",
      "outputs": [
        {
          "internalType": "uint256",
          "name": "",
          "type": "uint256"
        }
      ],
      "stateMutability": "view",
      "type": "function"
    },
    {
      "inputs": [],
      "name": "subToken",
      "outputs": [
        {
          "internalType": "contract IERC20",
          "name": "",
          "type": "address"
        }
      ],
      "stateMutability": "view",
      "type": "function"
    },
    {
      "inputs": [
        {
          "internalType": "address",
          "name": "_address",
          "type": "address"
        },
        {
          "internalType": "uint256",
          "name": "_blocks",
          "type": "uint256"
        }
      ],
      "name": "subscribe",
      "outputs": [],
      "stateMutability": "nonpayable",
      "type": "function"
    },
    {
      "inputs": [],
      "name": "totalUniqueSubs",
      "outputs": [
        {
          "internalType": "uint256",
          "name": "",
          "type": "uint256"
        }
      ],
      "stateMutability": "view",
      "type": "function"
    },
    {
      "inputs": [
        {
          "internalType": "address",
          "name": "newOwner",
          "type": "address"
        }
      ],
      "name": "transferOwnership",
      "outputs": [],
      "stateMutability": "nonpayable",
      "type": "function"
    },
    {
      "inputs": [],
      "name": "unpause",
      "outputs": [],
      "stateMutability": "nonpayable",
      "type": "function"
    },
    {
      "inputs": [],
      "name": "withdrawTokens",
      "outputs": [
        {
          "internalType": "uint256",
          "name": "",
          "type": "uint256"
        }
      ],
      "stateMutability": "nonpayable",
      "type": "function"
    }
  ],
  "bytecode": {
    "object": "0x608060405234801561001057600080fd5b506114ca806100206000396000f3fe608060405234801561001057600080fd5b50600436106101425760003560e01c80637fb9268e116100b8578063c350a1b51161007c578063c350a1b514610299578063ca305ee0146102ac578063d2b5b72c146102bf578063dc08706d146102d2578063e9ffa9f4146102e5578063f2fde38b146102f857600080fd5b80637fb9268e146102455780638456cb59146102655780638d8f2adb1461026d5780638da5cb5b146102755780638de692841461028657600080fd5b80635c975abb1161010a5780635c975abb146101ac5780635e5b8752146101b75780636ac84956146101ec578063715018a6146101ff5780637adbf973146102075780637dc0d1d01461021a57600080fd5b80631fec6493146101475780632ac893a0146101635780633f4ba83a14610178578063453e01ad14610180578063587544c3146101a3575b600080fd5b61015060985481565b6040519081526020015b60405180910390f35b6101766101713660046110db565b61030b565b005b6101766103e6565b61019361018e3660046110db565b61041a565b604051901515815260200161015a565b61015060995481565b60335460ff16610193565b6101da6101c53660046110db565b609c6020526000908152604090205460ff1681565b60405160ff909116815260200161015a565b6101766101fa3660046110ff565b61045b565b61017661050a565b6101766102153660046110db565b61053e565b609a5461022d906001600160a01b031681565b6040516001600160a01b03909116815260200161015a565b6101506102533660046110db565b609b6020526000908152604090205481565b610176610610565b610150610642565b6065546001600160a01b031661022d565b610176610294366004611118565b6106fe565b6101766102a7366004611144565b610877565b6101766102ba36600461126c565b61095b565b6101766102cd366004611118565b610aaf565b6101da6102e03660046110db565b610bcc565b60975461022d906001600160a01b031681565b6101766103063660046110db565b610c02565b6065546001600160a01b0316331461033e5760405162461bcd60e51b81526004016103359061132e565b60405180910390fd5b6097546001600160a01b038281169116141561039c5760405162461bcd60e51b815260206004820152601a60248201527f4c53533a2043616e6e6f74207365742073616d6520746f6b656e0000000000006044820152606401610335565b609780546001600160a01b0319166001600160a01b0383169081179091556040517ff9ae0423c847ec8129e1d3a9ca8480341e82d7098f7dc4660f4fc0495a916d1a90600090a250565b6065546001600160a01b031633146104105760405162461bcd60e51b81526004016103359061132e565b610418610c9d565b565b60006098546000141561042f57506001919050565b506001600160a01b03166000908152609b60209081526040808320548352609d90915290205443111590565b6065546001600160a01b031633146104855760405162461bcd60e51b81526004016103359061132e565b8060985414156104d75760405162461bcd60e51b815260206004820152601b60248201527f4c53533a2043616e6e6f74207365742073616d6520616d6f756e7400000000006044820152606401610335565b609881905560405181907f85d4a02d5fc7d0c65a3057977b8c9ec75d25c5aed9a7ee054abe838bd4145e1b90600090a250565b6065546001600160a01b031633146105345760405162461bcd60e51b81526004016103359061132e565b6104186000610d30565b6065546001600160a01b031633146105685760405162461bcd60e51b81526004016103359061132e565b609a546001600160a01b03828116911614156105c65760405162461bcd60e51b815260206004820152601c60248201527f4c53533a2043616e6e6f74207365742073616d652061646472657373000000006044820152606401610335565b609a80546001600160a01b0319166001600160a01b0383169081179091556040517fb3eacd0e351fafdfefdec84e1cd19679b38dbcd63ea7c2c24da17fd2bc3b3c0e90600090a250565b6065546001600160a01b0316331461063a5760405162461bcd60e51b81526004016103359061132e565b610418610d82565b6065546000906001600160a01b0316331461066f5760405162461bcd60e51b81526004016103359061132e565b6000805b60995481116106b6576000818152609d602052604090206001810154156106ad5760018101546106a39084611379565b6000600183015592505b50600101610673565b506097546106ce906001600160a01b03163383610dfd565b60405181907f58eb5dbbf019b25979cf9b1f2b727523a9b05c3a44820f08bed539287844cefd90600090a2905090565b6001600160a01b0382166107545760405162461bcd60e51b815260206004820152601c60248201527f4c53533a2043616e6e6f7420737562207a65726f2061646472657373000000006044820152606401610335565b6001600160a01b0382166000908152609b6020526040902054156107ba5760405162461bcd60e51b815260206004820152601f60248201527f4c53533a20416c726561647920737562736372696265642c20657874656e64006044820152606401610335565b6001609960008282546107cd9190611379565b90915550506099546001600160a01b0383166000908152609b60209081526040808320849055928252609d905290812060985490919061080d9084611391565b609754909150610828906001600160a01b0316333084610f2e565b6108328343611379565b82556001820181905560405183906001600160a01b038616907f1e05df24f73db39faa0c2d5d26727d08632debce09833123a69214ba943e07c290600090a350505050565b600054610100900460ff166108925760005460ff1615610896565b303b155b6108f95760405162461bcd60e51b815260206004820152602e60248201527f496e697469616c697a61626c653a20636f6e747261637420697320616c72656160448201526d191e481a5b9a5d1a585b1a5e995960921b6064820152608401610335565b600054610100900460ff1615801561091b576000805461ffff19166101011790555b61092361106c565b61092c8361045b565b6109358261030b565b61093e8461053e565b60006099558015610955576000805461ff00191690555b50505050565b609a546001600160a01b031633146109b55760405162461bcd60e51b815260206004820152601b60248201527f4c53533a204f6e6c79204f7261636c6520436f6e74726f6c6c657200000000006044820152606401610335565b815181518114610a075760405162461bcd60e51b815260206004820152601860248201527f4c53533a2041727261797320646f206e6f74206d6174636800000000000000006044820152606401610335565b60005b81811015610955576000848281518110610a2657610a266113b0565b602002602001015190506000848381518110610a4457610a446113b0565b6020908102919091018101516001600160a01b0384166000818152609c9093526040808420805460ff191660ff851690811790915590519294509290917f2cb19e7f0f90040467ae898aaf5424bccd8750a9c61c23c36c277397b28187409190a35050600101610a0a565b6001600160a01b0382166000908152609b60209081526040808320548352609d90915290208054610b185760405162461bcd60e51b81526020600482015260136024820152721314d4ce88139bdd081cdd589cd8dc9a589959606a1b6044820152606401610335565b600060985483610b289190611391565b609754909150610b43906001600160a01b0316333084610f2e565b81544311610b6a5782826000016000828254610b5f9190611379565b90915550610b779050565b610b748343611379565b82555b80826001016000828254610b8b9190611379565b909155505060405183906001600160a01b038616907fdf383c361ca99a1a489f2e5bc53f4e98515c2dee680062911ebf80d51fbfe14290600090a350505050565b6000610bd73361041a565b610be357506000919050565b506001600160a01b03166000908152609c602052604090205460ff1690565b6065546001600160a01b03163314610c2c5760405162461bcd60e51b81526004016103359061132e565b6001600160a01b038116610c915760405162461bcd60e51b815260206004820152602660248201527f4f776e61626c653a206e6577206f776e657220697320746865207a65726f206160448201526564647265737360d01b6064820152608401610335565b610c9a81610d30565b50565b60335460ff16610ce65760405162461bcd60e51b815260206004820152601460248201527314185d5cd8589b194e881b9bdd081c185d5cd95960621b6044820152606401610335565b6033805460ff191690557f5db9ee0a495bf2e6ff9c91a7834c1ba4fdd244a5e8aa4e537bd38aeae4b073aa335b6040516001600160a01b03909116815260200160405180910390a1565b606580546001600160a01b038381166001600160a01b0319831681179093556040519116919082907f8be0079c531659141344cd1fd0a4f28419497f9722a3daafe3b4186f6b6457e090600090a35050565b60335460ff1615610dc85760405162461bcd60e51b815260206004820152601060248201526f14185d5cd8589b194e881c185d5cd95960821b6044820152606401610335565b6033805460ff191660011790557f62e78cea01bee320cd4e420270b5ea74000d11b0c9f74754ebdbfc544b05a258610d133390565b604080516001600160a01b038481166024830152604480830185905283518084039091018152606490920183526020820180516001600160e01b031663a9059cbb60e01b1790529151600092839290871691610e5991906113c6565b6000604051808303816000865af19150503d8060008114610e96576040519150601f19603f3d011682016040523d82523d6000602084013e610e9b565b606091505b5091509150818015610ec5575080511580610ec5575080806020019051810190610ec59190611401565b610f275760405162461bcd60e51b815260206004820152602d60248201527f5472616e7366657248656c7065723a3a736166655472616e736665723a20747260448201526c185b9cd9995c8819985a5b1959609a1b6064820152608401610335565b5050505050565b604080516001600160a01b0385811660248301528481166044830152606480830185905283518084039091018152608490920183526020820180516001600160e01b03166323b872dd60e01b1790529151600092839290881691610f9291906113c6565b6000604051808303816000865af19150503d8060008114610fcf576040519150601f19603f3d011682016040523d82523d6000602084013e610fd4565b606091505b5091509150818015610ffe575080511580610ffe575080806020019051810190610ffe9190611401565b6110645760405162461bcd60e51b815260206004820152603160248201527f5472616e7366657248656c7065723a3a7472616e7366657246726f6d3a207472604482015270185b9cd9995c919c9bdb4819985a5b1959607a1b6064820152608401610335565b505050505050565b600054610100900460ff166110935760405162461bcd60e51b815260040161033590611423565b610418600054610100900460ff166110bd5760405162461bcd60e51b815260040161033590611423565b61041833610d30565b6001600160a01b0381168114610c9a57600080fd5b6000602082840312156110ed57600080fd5b81356110f8816110c6565b9392505050565b60006020828403121561111157600080fd5b5035919050565b6000806040838503121561112b57600080fd5b8235611136816110c6565b946020939093013593505050565b60008060006060848603121561115957600080fd5b8335611164816110c6565b925060208401359150604084013561117b816110c6565b809150509250925092565b634e487b7160e01b600052604160045260246000fd5b604051601f8201601f1916810167ffffffffffffffff811182821017156111c5576111c5611186565b604052919050565b600067ffffffffffffffff8211156111e7576111e7611186565b5060051b60200190565b600082601f83011261120257600080fd5b81356020611217611212836111cd565b61119c565b82815260059290921b8401810191818101908684111561123657600080fd5b8286015b8481101561126157803560ff811681146112545760008081fd5b835291830191830161123a565b509695505050505050565b6000806040838503121561127f57600080fd5b823567ffffffffffffffff8082111561129757600080fd5b818501915085601f8301126112ab57600080fd5b813560206112bb611212836111cd565b82815260059290921b840181019181810190898411156112da57600080fd5b948201945b838610156113015785356112f2816110c6565b825294820194908201906112df565b9650508601359250508082111561131757600080fd5b50611324858286016111f1565b9150509250929050565b6020808252818101527f4f776e61626c653a2063616c6c6572206973206e6f7420746865206f776e6572604082015260600190565b634e487b7160e01b600052601160045260246000fd5b6000821982111561138c5761138c611363565b500190565b60008160001904831182151516156113ab576113ab611363565b500290565b634e487b7160e01b600052603260045260246000fd5b6000825160005b818110156113e757602081860181015185830152016113cd565b818111156113f6576000828501525b509190910192915050565b60006020828403121561141357600080fd5b815180151581146110f857600080fd5b6020808252602b908201527f496e697469616c697a61626c653a20636f6e7472616374206973206e6f74206960408201526a6e697469616c697a696e6760a81b60608201526080019056fea2646970667358221220e8c406642a4041992301d15f37d1ae2baefe2449fd979aa31581efd7d4d7497d64736f6c637828302e382e31322d646576656c6f702e323032322e322e31362b636f6d6d69742e66303064373330380059",
    "linkReferences": {}
  }
}