{
  "abi": [
    {
      "anonymous": false,
      "inputs": [
        {
          "indexed": true,
          "internalType": "address",
          "name": "_address",
          "type": "address"
        }
      ],
      "name": "NewCancellation",
      "type": "event"
    },
    {
      "anonymous": false,
      "inputs": [
        {
          "indexed": true,
          "internalType": "address",
          "name": "_oracle",
          "type": "address"
        }
      ],
      "name": "NewOracle",
      "type": "event"
    },
    {
      "anonymous": false,
      "inputs": [
        {
          "indexed": true,
          "internalType": "address",
          "name": "_updatedAddress",
          "type": "address"
        },
        {
          "indexed": true,
          "internalType": "uint8",
          "name": "_updatedScore",
          "type": "uint8"
        }
      ],
      "name": "NewRiskScore",
      "type": "event"
    },
    {
      "anonymous": false,
      "inputs": [
        {
          "indexed": true,
          "internalType": "contract ILssSecurityOracle",
          "name": "_securityOracle",
          "type": "address"
        }
      ],
      "name": "NewSecurityOracle",
      "type": "event"
    },
    {
      "anonymous": false,
      "inputs": [
        {
          "indexed": true,
          "internalType": "address",
          "name": "_address",
          "type": "address"
        },
        {
          "indexed": true,
          "internalType": "uint256",
          "name": "_blocks",
          "type": "uint256"
        }
      ],
      "name": "NewSubscription",
      "type": "event"
    },
    {
      "anonymous": false,
      "inputs": [
        {
          "indexed": true,
          "internalType": "uint256",
          "name": "_subFee",
          "type": "uint256"
        }
      ],
      "name": "NewSubscriptionFee",
      "type": "event"
    },
    {
      "anonymous": false,
      "inputs": [
        {
          "indexed": true,
          "internalType": "contract IERC20",
          "name": "_subToken",
          "type": "address"
        }
      ],
      "name": "NewSubscriptionToken",
      "type": "event"
    },
    {
      "anonymous": false,
      "inputs": [
        {
          "indexed": true,
          "internalType": "uint256",
          "name": "_withdrawPool",
          "type": "uint256"
        }
      ],
      "name": "NewWithdrawal",
      "type": "event"
    },
    {
      "anonymous": false,
      "inputs": [
        {
          "indexed": true,
          "internalType": "address",
          "name": "previousOwner",
          "type": "address"
        },
        {
          "indexed": true,
          "internalType": "address",
          "name": "newOwner",
          "type": "address"
        }
      ],
      "name": "OwnershipTransferred",
      "type": "event"
    },
    {
      "anonymous": false,
      "inputs": [
        {
          "indexed": false,
          "internalType": "address",
          "name": "account",
          "type": "address"
        }
      ],
      "name": "Paused",
      "type": "event"
    },
    {
      "anonymous": false,
      "inputs": [
        {
          "indexed": false,
          "internalType": "address",
          "name": "account",
          "type": "address"
        }
      ],
      "name": "Unpaused",
      "type": "event"
    },
    {
      "inputs": [
        {
          "internalType": "address",
          "name": "_address",
          "type": "address"
        }
      ],
      "name": "cancelSubscription",
      "outputs": [],
      "stateMutability": "nonpayable",
      "type": "function"
    },
    {
      "inputs": [
        {
          "internalType": "address",
          "name": "_address",
          "type": "address"
        }
      ],
      "name": "getIsSubscribed",
      "outputs": [
        {
          "internalType": "bool",
          "name": "",
          "type": "bool"
        }
      ],
      "stateMutability": "view",
      "type": "function"
    },
    {
      "inputs": [
        {
          "internalType": "address",
          "name": "_address",
          "type": "address"
        }
      ],
      "name": "getRiskScore",
      "outputs": [
        {
          "internalType": "uint8",
          "name": "",
          "type": "uint8"
        }
      ],
      "stateMutability": "view",
      "type": "function"
    },
    {
      "inputs": [
        {
          "internalType": "address",
          "name": "_oracle",
          "type": "address"
        },
        {
          "internalType": "uint256",
          "name": "_subsricption",
          "type": "uint256"
        },
        {
          "internalType": "contract IERC20",
          "name": "_subToken",
          "type": "address"
        }
      ],
      "name": "initialize",
      "outputs": [],
      "stateMutability": "nonpayable",
      "type": "function"
    },
    {
      "inputs": [],
      "name": "oracle",
      "outputs": [
        {
          "internalType": "address",
          "name": "",
          "type": "address"
        }
      ],
      "stateMutability": "view",
      "type": "function"
    },
    {
      "inputs": [],
      "name": "owner",
      "outputs": [
        {
          "internalType": "address",
          "name": "",
          "type": "address"
        }
      ],
      "stateMutability": "view",
      "type": "function"
    },
    {
      "inputs": [],
      "name": "pause",
      "outputs": [],
      "stateMutability": "nonpayable",
      "type": "function"
    },
    {
      "inputs": [],
      "name": "paused",
      "outputs": [
        {
          "internalType": "bool",
          "name": "",
          "type": "bool"
        }
      ],
      "stateMutability": "view",
      "type": "function"
    },
    {
      "inputs": [],
      "name": "renounceOwnership",
      "outputs": [],
      "stateMutability": "nonpayable",
      "type": "function"
    },
    {
      "inputs": [
        {
          "internalType": "address",
          "name": "",
          "type": "address"
        }
      ],
      "name": "riskScores",
      "outputs": [
        {
          "internalType": "uint8",
          "name": "",
          "type": "uint8"
        }
      ],
      "stateMutability": "view",
      "type": "function"
    },
    {
      "inputs": [
        {
          "internalType": "address",
          "name": "_oracle",
          "type": "address"
        }
      ],
      "name": "setOracle",
      "outputs": [],
      "stateMutability": "nonpayable",
      "type": "function"
    },
    {
      "inputs": [
        {
          "internalType": "address[]",
          "name": "_addresses",
          "type": "address[]"
        },
        {
          "internalType": "uint8[]",
          "name": "_scores",
          "type": "uint8[]"
        }
      ],
      "name": "setRiskScores",
      "outputs": [],
      "stateMutability": "nonpayable",
      "type": "function"
    },
    {
      "inputs": [
        {
          "internalType": "uint256",
          "name": "_sub",
          "type": "uint256"
        }
      ],
      "name": "setSubscriptionFee",
      "outputs": [],
      "stateMutability": "nonpayable",
      "type": "function"
    },
    {
      "inputs": [
        {
          "internalType": "contract IERC20",
          "name": "_token",
          "type": "address"
        }
      ],
      "name": "setSubscriptionToken",
      "outputs": [],
      "stateMutability": "nonpayable",
      "type": "function"
    },
    {
      "inputs": [],
      "name": "subFee",
      "outputs": [
        {
          "internalType": "uint256",
          "name": "",
          "type": "uint256"
        }
      ],
      "stateMutability": "view",
      "type": "function"
    },
    {
      "inputs": [
        {
          "internalType": "address",
          "name": "",
          "type": "address"
        }
      ],
      "name": "subNo",
      "outputs": [
        {
          "internalType": "uint256",
          "name": "",
          "type": "uint256"
        }
      ],
      "stateMutability": "view",
      "type": "function"
    },
    {
      "inputs": [],
      "name": "subToken",
      "outputs": [
        {
          "internalType": "contract IERC20",
          "name": "",
          "type": "address"
        }
      ],
      "stateMutability": "view",
      "type": "function"
    },
    {
      "inputs": [
        {
          "internalType": "address",
          "name": "_address",
          "type": "address"
        },
        {
          "internalType": "uint256",
          "name": "_blocks",
          "type": "uint256"
        }
      ],
      "name": "subscribe",
      "outputs": [],
      "stateMutability": "nonpayable",
      "type": "function"
    },
    {
      "inputs": [],
      "name": "totalUniqueSubs",
      "outputs": [
        {
          "internalType": "uint256",
          "name": "",
          "type": "uint256"
        }
      ],
      "stateMutability": "view",
      "type": "function"
    },
    {
      "inputs": [
        {
          "internalType": "address",
          "name": "newOwner",
          "type": "address"
        }
      ],
      "name": "transferOwnership",
      "outputs": [],
      "stateMutability": "nonpayable",
      "type": "function"
    },
    {
      "inputs": [],
      "name": "unpause",
      "outputs": [],
      "stateMutability": "nonpayable",
      "type": "function"
    },
    {
      "inputs": [],
      "name": "withdrawTokens",
      "outputs": [
        {
          "internalType": "uint256",
          "name": "",
          "type": "uint256"
        }
      ],
      "stateMutability": "nonpayable",
      "type": "function"
    }
  ],
  "bytecode": {
    "object": "0x608060405234801561001057600080fd5b5061159a806100206000396000f3fe608060405234801561001057600080fd5b50600436106101425760003560e01c80637fb9268e116100b857806393d81d581161007c57806393d81d58146102bf578063c350a1b5146102d2578063ca305ee0146102e5578063dc08706d146102f8578063e9ffa9f41461030b578063f2fde38b1461031e57600080fd5b80637fb9268e1461026b5780638456cb591461028b5780638d8f2adb146102935780638da5cb5b1461029b5780638de69284146102ac57600080fd5b80635c975abb1161010a5780635c975abb146101d25780635e5b8752146101dd5780636ac8495614610212578063715018a6146102255780637adbf9731461022d5780637dc0d1d01461024057600080fd5b80631fec6493146101475780632ac893a0146101635780633f4ba83a14610178578063453e01ad14610180578063587544c3146101c9575b600080fd5b61015060985481565b6040519081526020015b60405180910390f35b610176610171366004611194565b610331565b005b61017661040c565b6101b961018e366004611194565b6001600160a01b03166000908152609b60209081526040808320548352609d90915290205443111590565b604051901515815260200161015a565b61015060995481565b60335460ff166101b9565b6102006101eb366004611194565b609c6020526000908152604090205460ff1681565b60405160ff909116815260200161015a565b6101766102203660046111b8565b610440565b6101766104ef565b61017661023b366004611194565b610523565b609a54610253906001600160a01b031681565b6040516001600160a01b03909116815260200161015a565b610150610279366004611194565b609b6020526000908152604090205481565b6101766105f5565b610150610627565b6065546001600160a01b0316610253565b6101766102ba3660046111d1565b610724565b6101766102cd366004611194565b6108d8565b6101766102e03660046111fd565b610a38565b6101766102f3366004611325565b610b1c565b610200610306366004611194565b610c70565b609754610253906001600160a01b031681565b61017661032c366004611194565b610cbb565b6065546001600160a01b031633146103645760405162461bcd60e51b815260040161035b906113e7565b60405180910390fd5b6097546001600160a01b03828116911614156103c25760405162461bcd60e51b815260206004820152601a60248201527f4c53533a2043616e6e6f74207365742073616d6520746f6b656e000000000000604482015260640161035b565b609780546001600160a01b0319166001600160a01b0383169081179091556040517ff9ae0423c847ec8129e1d3a9ca8480341e82d7098f7dc4660f4fc0495a916d1a90600090a250565b6065546001600160a01b031633146104365760405162461bcd60e51b815260040161035b906113e7565b61043e610d56565b565b6065546001600160a01b0316331461046a5760405162461bcd60e51b815260040161035b906113e7565b8060985414156104bc5760405162461bcd60e51b815260206004820152601b60248201527f4c53533a2043616e6e6f74207365742073616d6520616d6f756e740000000000604482015260640161035b565b609881905560405181907f85d4a02d5fc7d0c65a3057977b8c9ec75d25c5aed9a7ee054abe838bd4145e1b90600090a250565b6065546001600160a01b031633146105195760405162461bcd60e51b815260040161035b906113e7565b61043e6000610de9565b6065546001600160a01b0316331461054d5760405162461bcd60e51b815260040161035b906113e7565b609a546001600160a01b03828116911614156105ab5760405162461bcd60e51b815260206004820152601c60248201527f4c53533a2043616e6e6f74207365742073616d65206164647265737300000000604482015260640161035b565b609a80546001600160a01b0319166001600160a01b0383169081179091556040517fb3eacd0e351fafdfefdec84e1cd19679b38dbcd63ea7c2c24da17fd2bc3b3c0e90600090a250565b6065546001600160a01b0316331461061f5760405162461bcd60e51b815260040161035b906113e7565b61043e610e3b565b6065546000906001600160a01b031633146106545760405162461bcd60e51b815260040161035b906113e7565b6000805b60995481116106dc576000818152609d6020526040902080544311156106955760028101546106879084611432565b6000600283015592506106d3565b600081600101544383600001546106ac919061144a565b6106b69190611461565b90508082600201546106c8919061144a565b600283019190915592505b50600101610658565b506097546106f4906001600160a01b03163383610eb6565b60405181907f58eb5dbbf019b25979cf9b1f2b727523a9b05c3a44820f08bed539287844cefd90600090a2905090565b6001600160a01b03821661077a5760405162461bcd60e51b815260206004820152601c60248201527f4c53533a2043616e6e6f7420737562207a65726f206164647265737300000000604482015260640161035b565b6001600160a01b0382166000908152609b60205260409020546107cc576001609960008282546107aa9190611432565b90915550506099546001600160a01b0383166000908152609b60205260409020555b6001600160a01b0382166000908152609b60209081526040808320548352609d909152902080544310156108425760405162461bcd60e51b815260206004820152601760248201527f4c53533a20416c72656164792073756273637269626564000000000000000000604482015260640161035b565b6000609854836108529190611461565b60975490915061086d906001600160a01b0316333084610fe7565b6108778343611432565b825560985460018301556003820180546001600160a01b031916331790556002820181905560405183906001600160a01b038616907f1e05df24f73db39faa0c2d5d26727d08632debce09833123a69214ba943e07c290600090a350505050565b6001600160a01b0381166000908152609b60209081526040808320548352609d9091529020805443106109435760405162461bcd60e51b81526020600482015260136024820152721314d4ce88139bdd081cdd589cd8dc9a589959606a1b604482015260640161035b565b60038101546001600160a01b0316331461099f5760405162461bcd60e51b815260206004820152601c60248201527f4c53533a204d757374206861766520706179656420666f722073756200000000604482015260640161035b565b600081600101544383600001546109b6919061144a565b6109c09190611461565b43835560028301805491925082916000906109dc90849061144a565b9091555050600060018301556097546109ff906001600160a01b03163383610eb6565b6040516001600160a01b038416907ffe21ae794c5d63983c17d3fc57cbded8c0114f89f7276d2aa41a48b6e6340c6190600090a2505050565b600054610100900460ff16610a535760005460ff1615610a57565b303b155b610aba5760405162461bcd60e51b815260206004820152602e60248201527f496e697469616c697a61626c653a20636f6e747261637420697320616c72656160448201526d191e481a5b9a5d1a585b1a5e995960921b606482015260840161035b565b600054610100900460ff16158015610adc576000805461ffff19166101011790555b610ae4611125565b610aed83610440565b610af682610331565b610aff84610523565b60006099558015610b16576000805461ff00191690555b50505050565b609a546001600160a01b03163314610b765760405162461bcd60e51b815260206004820152601b60248201527f4c53533a204f6e6c79204f7261636c6520436f6e74726f6c6c65720000000000604482015260640161035b565b815181518114610bc85760405162461bcd60e51b815260206004820152601860248201527f4c53533a2041727261797320646f206e6f74206d617463680000000000000000604482015260640161035b565b60005b81811015610b16576000848281518110610be757610be7611480565b602002602001015190506000848381518110610c0557610c05611480565b6020908102919091018101516001600160a01b0384166000818152609c9093526040808420805460ff191660ff851690811790915590519294509290917f2cb19e7f0f90040467ae898aaf5424bccd8750a9c61c23c36c277397b28187409190a35050600101610bcb565b336000908152609b60209081526040808320548352609d909152812054431115610c9c57506000919050565b506001600160a01b03166000908152609c602052604090205460ff1690565b6065546001600160a01b03163314610ce55760405162461bcd60e51b815260040161035b906113e7565b6001600160a01b038116610d4a5760405162461bcd60e51b815260206004820152602660248201527f4f776e61626c653a206e6577206f776e657220697320746865207a65726f206160448201526564647265737360d01b606482015260840161035b565b610d5381610de9565b50565b60335460ff16610d9f5760405162461bcd60e51b815260206004820152601460248201527314185d5cd8589b194e881b9bdd081c185d5cd95960621b604482015260640161035b565b6033805460ff191690557f5db9ee0a495bf2e6ff9c91a7834c1ba4fdd244a5e8aa4e537bd38aeae4b073aa335b6040516001600160a01b03909116815260200160405180910390a1565b606580546001600160a01b038381166001600160a01b0319831681179093556040519116919082907f8be0079c531659141344cd1fd0a4f28419497f9722a3daafe3b4186f6b6457e090600090a35050565b60335460ff1615610e815760405162461bcd60e51b815260206004820152601060248201526f14185d5cd8589b194e881c185d5cd95960821b604482015260640161035b565b6033805460ff191660011790557f62e78cea01bee320cd4e420270b5ea74000d11b0c9f74754ebdbfc544b05a258610dcc3390565b604080516001600160a01b038481166024830152604480830185905283518084039091018152606490920183526020820180516001600160e01b031663a9059cbb60e01b1790529151600092839290871691610f129190611496565b6000604051808303816000865af19150503d8060008114610f4f576040519150601f19603f3d011682016040523d82523d6000602084013e610f54565b606091505b5091509150818015610f7e575080511580610f7e575080806020019051810190610f7e91906114d1565b610fe05760405162461bcd60e51b815260206004820152602d60248201527f5472616e7366657248656c7065723a3a736166655472616e736665723a20747260448201526c185b9cd9995c8819985a5b1959609a1b606482015260840161035b565b5050505050565b604080516001600160a01b0385811660248301528481166044830152606480830185905283518084039091018152608490920183526020820180516001600160e01b03166323b872dd60e01b179052915160009283929088169161104b9190611496565b6000604051808303816000865af19150503d8060008114611088576040519150601f19603f3d011682016040523d82523d6000602084013e61108d565b606091505b50915091508180156110b75750805115806110b75750808060200190518101906110b791906114d1565b61111d5760405162461bcd60e51b815260206004820152603160248201527f5472616e7366657248656c7065723a3a7472616e7366657246726f6d3a207472604482015270185b9cd9995c919c9bdb4819985a5b1959607a1b606482015260840161035b565b505050505050565b600054610100900460ff1661114c5760405162461bcd60e51b815260040161035b906114f3565b61043e600054610100900460ff166111765760405162461bcd60e51b815260040161035b906114f3565b61043e33610de9565b6001600160a01b0381168114610d5357600080fd5b6000602082840312156111a657600080fd5b81356111b18161117f565b9392505050565b6000602082840312156111ca57600080fd5b5035919050565b600080604083850312156111e457600080fd5b82356111ef8161117f565b946020939093013593505050565b60008060006060848603121561121257600080fd5b833561121d8161117f565b92506020840135915060408401356112348161117f565b809150509250925092565b634e487b7160e01b600052604160045260246000fd5b604051601f8201601f1916810167ffffffffffffffff8111828210171561127e5761127e61123f565b604052919050565b600067ffffffffffffffff8211156112a0576112a061123f565b5060051b60200190565b600082601f8301126112bb57600080fd5b813560206112d06112cb83611286565b611255565b82815260059290921b840181019181810190868411156112ef57600080fd5b8286015b8481101561131a57803560ff8116811461130d5760008081fd5b83529183019183016112f3565b509695505050505050565b6000806040838503121561133857600080fd5b823567ffffffffffffffff8082111561135057600080fd5b818501915085601f83011261136457600080fd5b813560206113746112cb83611286565b82815260059290921b8401810191818101908984111561139357600080fd5b948201945b838610156113ba5785356113ab8161117f565b82529482019490820190611398565b965050860135925050808211156113d057600080fd5b506113dd858286016112aa565b9150509250929050565b6020808252818101527f4f776e61626c653a2063616c6c6572206973206e6f7420746865206f776e6572604082015260600190565b634e487b7160e01b600052601160045260246000fd5b600082198211156114455761144561141c565b500190565b60008282101561145c5761145c61141c565b500390565b600081600019048311821515161561147b5761147b61141c565b500290565b634e487b7160e01b600052603260045260246000fd5b6000825160005b818110156114b7576020818601810151858301520161149d565b818111156114c6576000828501525b509190910192915050565b6000602082840312156114e357600080fd5b815180151581146111b157600080fd5b6020808252602b908201527f496e697469616c697a61626c653a20636f6e7472616374206973206e6f74206960408201526a6e697469616c697a696e6760a81b60608201526080019056fea2646970667358221220974b0ef7631d3fc7fd688cd8e7db0db81be263fd07979b34fcba884f963f309a64736f6c637828302e382e31322d646576656c6f702e323032322e322e31362b636f6d6d69742e66303064373330380059",
    "linkReferences": {}
  }
}